:0200000470107A
:100000003DB8F39600000000000400009872000064
:10001000000000000000000000000000FFFFFFFFE4
:10002000FFFFFFFFFFFFFFFFFFFFFFFFFFFFFFFFE0
:10003000FFFFFFFFFFFFFFFFFFFFFFFFFFFFFFFFD0
:10004000FFFFFFFFFFFFFFFFFFFFFFFFFFFFFFFFC0
:10005000FFFFFFFFFFFFFFFFFFFFFFFFFFFFFFFFB0
:1004000000800534315810183D5710183F57101808
:100410006F571018775710187F57101887571018F4
:100420000000000000000000000000008F571018BE
:1004300097571018000000009F571018A757101862
:10044000AF571018AF571018AF571018AF571018F4
:10045000AF571018AF571018AF571018AF571018E4
:10046000AF571018AF571018AF571018AF571018D4
:10047000AF571018AF571018AF571018AF571018C4
:10080000AF571018FFFFFFFFFFFFFFFFFFFFFFFFC6
:10081000FFFFFFFFFFFFFFFFFFFFFFFFFFFFFFFFE8
:100820007FE97FE906F078B80000000000000000D2
:1008300000000000000000000000000000000000B8
:10084000FFFFFFFFFFFFFFFFFFFFFFFFFFFFFFFFB8
:10085000FFFFFFFFFFFFFFFFFFFFFFFFFFFFFFFFA8
:10086000FFFFFFFFFFFFFFFFFFFFFFFFFFFFFFFF98
:100C0000F8B500BFF8BC08BC9E467047F8B500BFF9
:100C1000F8BC08BC9E467047B52610188D261018E3
:100C200000002A5200001D540000000000000000D7
:100C3000010000000300000096000000C00000005A
:100C4000F50000003901000090010000ADDBBAFFA3
:100C50009181795A5AC5567B669F95DE5BC5567B56
:100C6000679F95DE5CC5567B609F95DE5FBF0AD4AB
:100C700063E5C97160BF0AD45CE5C97161BF0AD47C
:100C80005DE5C97162BF0AD45EE5C971646445C39C
:100C9000583E8666656445C3593E8666666445C3AC
:100CA0005A3E8666676445C35B3E86666E275BA2D6
:100CB000527D98076F275BA2537D980770275BA230
:100CC0004C7D9807CC3355AAF069960FFE0000FFC3
:100CD000C25AC35A000000FF3C5AC35A070000FF23
:100CE0003B5AC35A0003000004000000000100004A
:100CF00000030000000400000007000001000000E5
:100D000000010000000100000000000000010000E0
:100D10000200000000000000000100000080060149
:100D200006000000020000000100000001000200B7
:100D300000000000010000000000000000000000B2
:100D400000000000000000000000000000000000A3
:100D50000000000000000000000000000000000093
:100D60000000000000000000000000000000000083
:100D7000180D1018140D1018100D10180C0D101857
:100D8000080D1018040D1018000D1018FC0C101888
:100D9000F80C1018F40C1018F00C1018EC0C1018BB
:100DA000E80C1018E40C1018010000000600000008
:100DB0001300000000000000000000000000000020
:100DC0000000000003000000000000000000000020
:100DD0000000000000000000000000000100000012
:100DE00000000000010000000600000013000000E9
:100DF00000000000000000000000000000000000F3
:100E000003000000000000000000000000000000DF
:100E100000000000000000000100000000000000D1
:100E200001000000060000001300000000000000A8
:100E300000000000000000000000000003000000AF
:100E400000000000000000000000000000000000A2
:100E50000000000001000000000000000100000090
:100E60000E0000001B000000000000000000000059
:100E7000000000000000000003000000000000006F
:100E80000000000000000000000000000000000062
:100E9000010000000000000001000000060000004A
:100EA0000000000000000000000000000000000042
:100EB000000000000300000000000000000000002F
:100EC0000000000000000000000000000100000021
:100ED00000000000000000000A0000000000000008
:100EE0000000000000000000000000000000000002
:100EF00003000000000000000000000000000000EF
:100F000000000000000000000100000000000000E0
:100F1000010000000C0000001300000000000000B1
:100F200000000000000000000000000003000000BE
:100F300000000000000000000000000000000000B1
:100F4000000000000100000000000000010000009F
:100F50000C00000013000000000000000000000072
:100F6000000000000000000003000000000000007E
:100F70000000000000000000000000000000000071
:100F80000100000000000000000000000E00000052
:100F90000000000000000000000000000000000051
:100FA000000000000300000000000000000000003E
:100FB0000000000000000000000000000100000030
:100FC00000000000000000000E0000000000000013
:100FD0000000000000000000000000000000000011
:100FE00003000000000000000000000000000000FE
:100FF00000000000000000000100000000000000F0
:1010000000000000060000000900000000000000D1
:1010100000000000000000000000000003000000CD
:1010200000000000000000000000000000000000C0
:1010300000000000010000000000000001000000AE
:101040000600000012000000000000000000000088
:10105000000000000000000003000000000000008D
:101060000000000000000000000000000000000080
:101070000100000000000000010000000800000066
:10108000120000000000000000000000000000004E
:10109000000000000300000000000000000000004D
:1010A000000000000000000000000000010000003F
:1010B0000000000001000000060000001200000017
:1010C0000000000000000000000000000000000020
:1010D000030000000000000000000000000000000D
:1010E00000000000000000000100000000000000FF
:1010F00001000000060000001200000000000000D7
:1011000000000000000000000000000003000000DC
:1011100000000000000000000000000000000000CF
:1011200000000000010000000000000001000000BD
:1011300000000000000000000000000000000000AF
:10114000000000000000000003000000000000009C
:10115000000000000000000000000000000000008F
:101160000100000000000000010000000E0000006F
:101170001B00000000000000000000000000000054
:10118000000000000300000000000000000000005C
:10119000000000000000000000000000010000004E
:1011A00000000000010000000E0000001B00000015
:1011B000000000000000000000000000000000002F
:1011C000030000000000000000000000000000001C
:1011D000000000000000000001000000000000000E
:1011E00001000000060000001300000000000000E5
:1011F00000000000000000000000000003000000EC
:1012000000000000000000000000000000000000DE
:1012100000000000010000000000000001000000CC
:101220000E0000001B000000000000000000000095
:1012300000000000000000000300000000000000AB
:10124000000000000000000000000000000000009E
:101250000100000000000000010000000E0000007E
:101260001B00000000000000000000000000000063
:10127000000000000300000000000000000000006B
:10128000000000000000000000000000010000005D
:1012900000000000010000000E0000001B00000024
:1012A000000000000000000000000000000000003E
:1012B000030000000000000000000000000000002B
:1012C000000000000000000001000000000000001D
:1012D000010000000C000000000000000000000001
:1012E00000000000000000000000000003000000FB
:1012F00000000000000000000000000000000000EE
:1013000000000000010000000000000001000000DB
:101310000C000000000000000000000000000000C1
:1013200000000000000000000300000000000000BA
:1013300000000000000000000000000000000000AD
:101340000100000000000000010000000600000095
:101350000A00000000000000000000000000000083
:10136000000000000300000000000000000000007A
:10137000000000000000000000000000010000006C
:1013800000000000010000000A0000000000000052
:10139000000000000000000000000000000000004D
:1013A000030000000000000000000000000000003A
:1013B000000000000000000001000000000000002C
:1013C000000000000E00000000000000000000000F
:1013D000000000000000000000000000030000000A
:1013E00000000000000000000000000000000000FD
:1013F00000000000010000000000000000000000EC
:1014000008000000000000000000000000000000D4
:1014100000000000000000000300000000000000C9
:1014200000000000000000000000000000000000BC
:1014300001000000000000000000000006000000A5
:101440001400000000000000000000000000000088
:101450000000000003000000000000000000000089
:10146000000000000000000000000000010000007B
:101470000000000000000000080000001400000050
:10148000000000000000000000000000000000005C
:101490000300000000000000000000000000000049
:1014A000000000000000000001000000000000003B
:1014B0000100000006000000140000000000000011
:1014C0000000000000000000000000000300000019
:1014D000000000000000000000000000000000000C
:1014E00000000000010000000000000001000000FA
:1014F00008000000140000000000000000000000D0
:1015000000000000000000000300000000000000D8
:1015100000000000000000000000000000000000CB
:1015200001000000000000000100000006000000B3
:1015300009000000000000000000000000000000A2
:101540000000000003000000000000000000000098
:10155000000000000000000000000000010000008A
:10156000000000000100000006000000090000006B
:10157000000000000000000000000000000000006B
:101580000300000000000000000000000000000058
:10159000000000000000000001000000000000004A
:1015A000010000000A00000000000000020000002E
:1015B0000100000000000000000000000300000027
:1015C000000000000000000000000000000000001B
:1015D0000000000001000000000000000100000009
:1015E00008000000150000000000000000000000DE
:1015F00000000000000000000300000000000000E8
:1016000000000000000000000000000000000000DA
:1016100001000000000000000100000006000000C2
:1016200015000000000000000000000000000000A5
:1016300000000000030000000000000000000000A7
:101640000000000000000000000000000100000099
:1016500000000000010000000A000000000000007F
:101660000200000001000000000000000000000077
:101670000300000000000000000000000000000067
:101680000000000000000000010000000000000059
:10169000010000000C0000000F000000000000002E
:1016A0000000000000000000000000000300000037
:1016B000000000000000000000000000000000002A
:1016C0000000000001000000000000000100000018
:1016D0000C0000000F0000000000000000000000EF
:1016E00000000000000000000300000000000000F7
:1016F00000000000000000000000000000000000EA
:101700000100000000000000010000000E000000C9
:101710001B000000000000000000000000000000AE
:1017200000000000030000000000000000000000B6
:1017300000000000000000000000000001000000A8
:1017400000000000010000000E0000001B0000006F
:101750000000000000000000000000000000000089
:101760000300000000000000000000000000000076
:101770000000000000000000010000000000000068
:10178000010000000E0000001B000000000000002F
:101790000000000000000000000000000300000046
:1017A0000000000000000000000000000000000039
:1017B0000000000001000000000000000100000027
:1017C0000E0000001B0000000000000000000000F0
:1017D0000000000000000000030000000000000006
:1017E00000000000000000000000000000000000F9
:1017F0000100000000000000010000000E000000D9
:101800001B000000000000000000000000000000BD
:1018100000000000030000000000000000000000C5
:1018200000000000000000000000000001000000B7
:1018300000000000010000000E0000001B0000007E
:101840000000000000000000000000000000000098
:101850000300000000000000000000000000000085
:101860000000000000000000010000000000000077
:10187000010000000600000014000000000000004D
:101880000000000000000000000000000300000055
:101890000000000000000000000000000000000048
:1018A0000000000001000000000000000100000036
:1018B000080000001400000000000000000000000C
:1018C0000000000000000000030000000000000015
:1018D0000000000000000000000000000000000008
:1018E0000100000000000000010000000E000000E8
:1018F0001B000000000000000000000000000000CD
:1019000000000000030000000000000000000000D4
:1019100000000000000000000000000001000000C6
:1019200000000000010000000E0000001B0000008D
:1019300000000000000000000000000000000000A7
:101940000300000000000000000000000000000094
:101950000000000000000000010000000000000086
:10196000010000000E0000001B000000000000004D
:101970000000000000000000000000000300000064
:101980000000000000000000000000000000000057
:101990000000000001000000000000000100000045
:1019A0000E0000001B00000000000000000000000E
:1019B0000000000000000000030000000000000024
:1019C0000000000000000000000000000000000017
:1019D0000100000000000000010000000E000000F7
:1019E0001B000000000000000000000000000000DC
:1019F00000000000030000000000000000000000E4
:101A000000000000000000000000000001000000D5
:101A100000000000010000000E0000001B0000009C
:101A200000000000000000000000000000000000B6
:101A300003000000000000000000000000000000A3
:101A40000000000000000000010000000000000095
:101A5000010000000E0000001B000000000000005C
:101A60000000000000000000000000000300000073
:101A70000000000000000000000000000000000066
:101A80000000000001000000000000000100000054
:101A90000E0000001B00000000000000000000001D
:101AA0000000000000000000030000000000000033
:101AB0000000000000000000000000000000000026
:101AC0000100000000000000010000008000000094
:101AD0001B000000000000000000000000000000EB
:101AE00000000000030000000000000000000000F3
:101AF00000000000000000000000000001000000E5
:101B00000000000001000000800000001B00000039
:101B100000000000000000000000000000000000C5
:101B200003000000000000000000000000000000B2
:101B300000000000000000000100000000000000A4
:101B40000100000006000000080000000000000086
:101B50000000000000000000000000000300000082
:101B60000000000000000000000000000000000075
:101B70000000000001000000000000000100000063
:101B80000E0000001B00000000000000000000002C
:101B90000000000000000000030000000000000042
:101BA0000000000000000000000000000000000035
:101BB0000100000000000000010000000E00000015
:101BC0001B000000000000000000000000000000FA
:101BD0000000000003000000000000000000000002
:101BE00000000000000000000000000001000000F4
:101BF00000000000010000000E0000001B000000BB
:101C000000000000000000000000000000000000D4
:101C100003000000000000000000000000000000C1
:101C200000000000000000000100000000000000B3
:101C3000010000000E0000001B000000000000007A
:101C40000000000000000000000000000300000091
:101C50000000000000000000000000000000000084
:101C60000000000001000000000000000100000072
:101C70000600000008000000000000000000000056
:101C80000000000000000000030000000000000051
:101C90000000000000000000000000000000000044
:101CA000010000000000000000000000070000002C
:101CB0000000000000000000000000000000000024
:101CC00000000000000000000000000000000026EE
:101CD00000000400000000000000042600004C008A
:101CE000000000000000106000002400010000005F
:101CF0000000346000002400000000000000586074
:101D0000000030000000000000001060000024000F
:101D1000010000000000346000002400000000000A
:101D2000000058600000300000000000000008249F
:101D300000D003000000000000D00B24003004009D
:101D400000000000001000240070050001000000E9
:101D50000080052400800200000000000000000058
:101D600000000000000000000010012200A004009C
:101D70000100000000B0052200800000000000000B
:101D80000000000000000000000000000000000053
:101D90000000000000000000000000000000000043
:101DA0000000001000000000010000000000002002
:101DB00000000010000000000200000000000040D1
:101DC000000000C000000000030000002008101800
:101DD00020000000010000000000001001000010C1
:101DE00002000010030000100400001005000010A5
:101DF0000600001007000010080000100900001085
:101E00000A0000100B0000100E0000100F00001060
:101E1000100000101100001012000010130000103C
:101E2000140000101500001016000010170000101C
:101E300018000010190000101A0000101B000010FC
:101E40001C0000101D0000101E0000101F000010DC
:101E500020000010210000102200001023000010BC
:101E6000240000102500001026000010270000109C
:101E700028000010290000102A0000102B0000107C
:101E80002C0000102D0000102E0000102F0000105C
:101E9000300000103100001032000010330000103C
:101EA000340000103500001036000010370000101C
:101EB00038000010390000103A0000103B000010FC
:101EC0003C0000103D0000103E0000103F000010DC
:101ED00040000010410000104200001043000010BC
:101EE000440000104500001046000010470000109C
:101EF00048000010490000104A0000104B0000107C
:101F00004C0000104D0000104E0000104F0000105B
:101F1000500000105100001052000010530000103B
:101F2000540000105500001056000010570000101B
:101F300058000010590000105A0000105B000010FB
:101F40005C0000105D0000105E0000105F000010DB
:101F500060000010610000106200001063000010BB
:101F6000640000106500001066000010670000109B
:101F700068000010690000106A0000106B0000107B
:101F80006C0000106D0000106E0000106F0000105B
:101F9000700000107100001072000010730000103B
:101FA000740000107500001076000010770000101B
:101FB00078000010790000107A0000107B000010FB
:101FC0007C0000107D0000107E0000107F000010DB
:101FD00080000010810000108200001083000010BB
:101FE000840000108500001086000010870000109B
:101FF00088000010890000108A0000108B0000107B
:102000008C0000108D0000108E0000108F0000105A
:10201000900000109100001092000010930000103A
:10202000940000109500001096000010970000101A
:1020300098000010990000109A0000109B000010FA
:102040009C0000109D0000109E0000109F000010DA
:10205000A0000010A1000010A2000010A3000010BA
:102060000000000002000000030000000400000067
:1020700005000000060000000D0000001000000038
:102080001200000015000000160000001E000000F5
:1020900021000000220000002300000024000000B6
:1020A0002700000028000000290000002A0000008E
:1020B0002B0000002C0000002D0000002E0000006E
:1020C0002F0000003000000031000000340000004C
:1020D0003700000038000000390000003A0000001E
:1020E0003B0000003C0000003D0000003E000000FE
:1020F0003F000000400000004100000042000000DE
:1021000043000000440000004500000046000000BD
:102110004700000048000000490000004A0000009D
:102120004B0000004C0000004D0000004E0000007D
:102130004F0000005000000051000000520000005D
:10214000530000005400000055000000560000003D
:102150005700000058000000590000005A0000001D
:102160005B0000005C0000005D0000005E000000FD
:102170005F00000060000000620000006E000000D0
:102180006F0000007000000071000000730000008C
:102190007400000075000000760000007700000069
:1021A000780000007A0000007B0000007C00000046
:1021B0007D0000007E0000007F0000008000000025
:1021C0008100000082000000830000008400000005
:1021D00085000000860000008700000088000000E5
:1021E000890000008A0000008B0000008C000000C5
:1021F0008D0000008E0000008F00000090000000A5
:102200009100000092000000930000009400000084
:102210009500000096000000980000009A00000061
:102220009B0000009C0000009D0000009E0000003C
:102230009F000000A0000000A1000000A20000001C
:10224000A5000000A6000000A7000000A8000000F4
:10225000A9000000AA000000AB000000AC000000D4
:10226000AD000000AE000000AF000000B0000000B4
:10227000B1000000B2000000B3000000B400000094
:10228000B5000000B6000000B7000000B800000074
:10229000B9000000BA000000BB000000BC00000054
:1022A000BD000000BE000000BF000000C000000034
:1022B000C1000000C2000000C3000000C400000014
:1022C000C5000000C6000000C7000000C8000000F4
:1022D000C9000000CA000000CB000000CC000000D4
:1022E000CD000000CE000000CF000000D0000000B4
:1022F000D1000000D2000000D3000000D400000094
:10230000D5000000D6000000D7000000D800000073
:10231000D9000000DA000000DB000000DC00000053
:10232000DD000000DE000000DF000000E000000033
:10233000E1000000E2000000E3000000E400000013
:10234000E5000000E6000000E7000000E8000000F3
:10235000E9000000EA000000EB000000EC000000D3
:10236000ED000000EE000000EF000000F0000000B3
:10237000F1000000F2000000F3000000F400000093
:10238000F5000000F6000000F7000000F800000073
:10239000F9000000FA000000FB000000FC00000053
:1023A000FD000000FE000000FF0000000001000032
:1023B000010100000201000003010000040100000F
:1023C00005010000060100000701000008010000EF
:1023D000090100000A0100000B0100000C010000CF
:1023E0000D0100000E0100000F01000010010000AF
:1023F000110100001201000013010000140100008F
:10240000150100001601000017010000180100006E
:10241000190100001A0100001B0100001C0100004E
:102420001D0100001E0100001F010000200100002E
:10243000210100002201000023010000240100000E
:1024400025010000260100002701000028010000EE
:10245000290100002A0100002B0100002C010000CE
:102460002D0100002E0100002F01000030010000AE
:10247000310100003201000033010000340100008E
:10248000350100003601000037010000380100006E
:10249000390100003A0100003B0100003C0100004E
:1024A0003D0100003E010000FF00000001010000AE
:1024B00005000000681D101804000000E41C10183E
:1024C00006000000CC1C101802000000441D10186B
:1024D000030000002C1D101802000000D825101861
:1024E000040000003826101802000000A82510186B
:1024F000040000002C26101803000000842510188A
:102500000300000020261018030000007825101892
:1025100001000000142610180400000054251018B3
:102520000300000008261018040000000020645476
:10253000010000000040235201000000004024522E
:1025400001000000004045540100000000304654E6
:10255000010000000010215200B0050000800000C2
:10256000002064540000040000004C00004024528D
:1025700000D0030000300400000000000000000054
:1025800000000000004045540000580000003000EA
:102590000030465400005800000030000020645411
:1025A000000000000000040000404554000034001A
:1025B00000002400003046540000340000002400D5
:1025C0000040235200800500008002000040245299
:1025D0000000000000D00300001021520010010094
:1025E00000A004000040455400001000000024003A
:1025F0000030465400001000000024000040235228
:10260000001000000070050002010305010306012F
:102610000307010302000105000106000107000194
:102620000201030601030701030000000201030584
:10263000010307010300000002000307000300007C
:10264000CC3355AAF069960F0348044B834202D05D
:10265000034B03B118477047747403347474033424
:1026600000000000064B0749C91A891048BF013114
:10267000491003D0044B0BB101481847704700BF05
:1026800074740334747403340000000010B5064CF5
:10269000237843B9FFF7D8FF044B13B10448AFF3D5
:1026A00000800123237010BD747403340000000007
:1026B000E025001408B5054B1BB105490548AFF3EB
:1026C0000080BDE80840FFF7CDBF00BF000000005C
:1026D00078740334E0250014A3F5803A704700BFF6
:1026E000174B002B08BF134B9D46FFF7F5FF00214A
:1026F0008B460F461348144A121A04F0DDFB0E4BAA
:10270000002B00D098470D4B002B00D0984700209D
:10271000002104000D000D48002802D00C48AFF342
:10272000008004F0D1FB2000290000F013F804F031
:10273000B1FB00BF00000800000000000000000026
:102740000080053474740334EC740334000000001A
:102750000000000010B504F09FF810B172B601BE81
:10276000FEE762B6074BD3F8002482F38888D3F8DB
:10277000044464086400204621462246234604F0AF
:10278000ADF9FEE70000346010B4072900D901BE9E
:102790001F2A00D901BE00F12D4303F5FE03DB091A
:1027A00003F1A56303F580731B011C4CA04211D0FB
:1027B0008034A04228D08034A04227D0184CA042B8
:1027C00026D08034A04226D08034A0420DD14FF4D0
:1027D000802300E00023C01A00F12B4000F53900EF
:1027E000104C04EBD01003EB001318684FF0010CF1
:1027F0000CFA01FC20EA0C0002F001028A400243BC
:102800001A605DF8044B70470023E4E70023E2E719
:102810004FF48023DFE74FF48023DCE700004754C8
:1028200000004B540065440510B4072900D901BECF
:102830001F2A00D901BE00F12D4303F5FE03DB0979
:1028400003F1A5631B01234CA04211D08034A042A8
:1028500029D08034A04228D01F4CA04227D08034F9
:10286000A04227D08034A0420DD14FF4802300E055
:102870000023C01A00F12B4000F53900174C04EB7F
:10288000D01003EB0013032917D81868C9001F24C0
:102890008C4020EA040002F01F028A4002431A60C2
:1028A0005DF8044B70470023E3E70023E1E74FF4B2
:1028B0008023DEE74FF48023DBE704395868C90042
:1028C0001F248C4020EA040002F01F028A400243C9
:1028D0005A60E5E70000475400004B54006444058B
:1028E000072900D901BE012A04D901BE01238B406A
:1028F00083607047002AF9D101238B404360704701
:1029000010B4072900D901BE0F2A18D9802A18D07F
:1029100001BE8900436C4FF00F0C0CFA01FC23EA56
:102920000C03046F24EA0C04802A0DD002F00F027D
:102930008A401343436404675DF8044B7047012ADF
:10294000E6D0092AE5D1E3E74FF0080C0CFA01FCC8
:102950004CEA030312098A401443EBE7072900D924
:1029600001BE436C8900CB4013F0070F08D1026F02
:10297000CA4002F00F02082A05D003F00F0070478A
:1029800003F00F00704780207047072900D901BE6F
:10299000012A00D901BE836C4FF0010C0CFA01FC36
:1029A00023EA0C0302F001028A401A438264704752
:1029B000072900D901BE012A00D901BE8900436E52
:1029C0004FF0070C0CFA01FC23EA0C0302F007029B
:1029D0008A401A4342667047072900D901BE1F2A60
:1029E00000D901BE03290DD8836EC9004FF01F0C1A
:1029F0000CFA01FC23EA0C0302F01F028A401A437E
:102A0000826670470439C36EC9004FF01F0C0CFA80
:102A100001FC23EA0C0302F01F028A401A43C2663B
:102A20007047082900D901BE012A00D901BE836977
:102A30004FF0010C0CFA01FC23EA0C0302F0010236
:102A40008A401A4382617047082900D901BE032ACF
:102A500000D901BE4900036C4FF0030C0CFA01FCD5
:102A600023EA0C0302F003028A401A43026470470F
:102A70002DE9F04105460F4614461E469DF8188084
:102A8000072900D901BE0F2C30D9802C30D001BECF
:102A9000012E00D901BEB8F11F0F00D901BE0022DE
:102AA00039462846FFF770FE424639462846FFF76A
:102AB000BBFE696CB8000F23834021EA03012A6F33
:102AC00022EA0303802C16D004F00F0484400C4348
:102AD0006C642B672B680122BA4023EA020306F0DC
:102AE0000106BE401E432E60BDE8F081012CCED011
:102AF000092CCDD1CBE76964C4F3031484401C4393
:102B00002C67E7E770B506460D461446072900D93D
:102B100001BE072C00D901BE29463046FFF71EFF33
:102B2000802800D00024AD00736F0F22AA4023EA52
:102B3000020304F00F04AC401C43746770BD000036
:102B4000002800F0AB8070B50D4614460646002AFA
:102B500000F0A680072900D901BE2368012B00D907
:102B600001BE63680F2B40F29280802B00F08F80B3
:102B700001BE237A1F2B00D901BEE368032B00D9C5
:102B800001BE2369012B00D901BE6369012B00D965
:102B900001BE236A012B00D901BE636A012B00D953
:102BA00001BEA36A012B00D901BEE36A032B00D941
:102BB00001BE236B072B00D901BEE3691F2B00D98F
:102BC00001BEA36B1BB1013B062B00D901BEA3695B
:102BD000072B00D901BE002229463046FFF7D4FD5D
:102BE000A26929463046FFF7E3FEE26929463046EE
:102BF000FFF7F2FE227A29463046FFF715FE62689B
:102C000029463046FFF77CFEE26829463046FFF74A
:102C10001BFF226929463046FFF703FF62692946F8
:102C20003046FFF7B2FE316D21F0FF01236A03F059
:102C30000103626A520002F002021343A26A920088
:102C400002F004021343E26AD20002F018021343B6
:102C5000226B5201D2B21343AA0002F47E72934057
:102C60000B433365A26B29463046FFF74BFF2268C2
:102C700029463046FFF734FE636B012B00D901BEB5
:102C8000626B29463046FFF77FFD002070BD012BA7
:102C90003FF46EAF092B7FF46CAF69E701487047D2
:102CA0000048F3E701005A0003461C4A90421AD03C
:102CB00002F58022904219D00020194A934218D080
:102CC000184A934218D0184A934218D0174A934290
:102CD00018D0174A934218D0164A934218D0164A71
:102CE000934218D070474FF08060E6E74FF0806065
:102CF000E6E74FF08060E6E74FF08060E6E74FF4EC
:102D0000A000E6E74FF40020E6E74FF40020E6E7F6
:102D10004FF4002070474FF40020E3E70040455493
:102D20000030465400304A5400206454004023527E
:102D30000040245200102152002021520023D0F8DC
:102D40000C22002A05DA42F20F72934203D80133B3
:102D5000F5E7002070470148704700BF020082017C
:102D60002DE9F0439DF820809DF82490074638B166
:102D7000B8F1000F06D00F2504260024A4460EE06B
:102D800001BEF5E701252E46F7E706FB01F005FA3F
:102D900000FE4CEA0E0C03FA00F0044301319142AC
:102DA000F3D9B8F1000F0ED0079BC7F81032B9F174
:102DB000000F04D0D7F8183223EA0C031C43C7F8DD
:102DC0001842BDE8F083079BC7F80C31D7F81031E3
:102DD00023EA0C032343C7F81031F2E72DE9F04F43
:102DE00087B00646084617461D46DDF840909DF818
:102DF0004480B8F1000F36D00824B0FBF5F1B1FBE8
:102E0000F4F304FB1311B7FBF5FBA4EB010AD34564
:102E10002BD801EB0B02013AB2FBF4F304FB1322B3
:102E200000230593049305FB04F7B0FBF7F001239F
:102E30000293CDF8048000904B463046FFF790FF98
:102E4000D34536D9049BB3FBF7FA059BB3FBF5F5E5
:102E5000B3FBF7F74FF0000B3A4657464346A846F8
:102E60001D4692461BE02024C7E7621E05FB04F3C3
:102E7000B0FBF3F303FB055304FB03F304930AFBDA
:102E800015730593CFE700210291019500974B46FA
:102E9000621E3046FFF764FF01370BF1010BD3458B
:102EA000F1D32B4645469846B5FBF4F304FB135586
:102EB00015B907B0BDE8F08F01230293CDF8048067
:102EC00000974B466A1E00213046FFF749FFF0E7A6
:102ED0002DE9F04383B00D4614461E4607460028F0
:102EE00047D03846FFF7E0FE2B1983424AD8002C22
:102EF0004ED000284FD0D7F80C3203F00F03053323
:102F00004FF0010909FA03F909F1FF331D4245D1D8
:102F10001C4246D13846FFF711FF8046002843D1B6
:102F20007378012B02D9B278032A40D8B27843EAE9
:102F300042033278072A3DD8C7F81422D7F8006236
:102F4000C6F30026D7F8002222F48072C7F80022C8
:102F50000122019200934B46224629463846FFF74C
:102F60003DFF46B9D7F8003223F48073C7F800322A
:102F70000AE001BEB5E7D7F8003243F48073C7F822
:102F8000003201E0DFF83480404603B0BDE8F08352
:102F9000DFF82880F8E7DFF82480F5E7DFF81C8009
:102FA000F2E7DFF81880EFE7DFF81480ECE7DFF8EE
:102FB0000C80E9E7DFF80480E6E700BF010082014A
:102FC00002008201002070471F2B31D810B500F598
:102FD000005E00F5105C00F580400C79B4B95EF835
:102FE000234024EA02044EF823404C79A4B95CF84B
:102FF000234024EA02044CF82340497991B950F85F
:10300000231021EA020140F8231010BD5EF823408E
:1030100014434EF82340E8E75CF8234014434CF88F
:103020002340EAE750F82310114340F82310ECE75F
:10303000704729B9036823F001030360002070473B
:10304000036843F001030360F8E7000008B50B468E
:103050001146134A904216D0124A90421AD1B3F147
:10306000805F19D3104A934218D80E4A90420ED06E
:1030700003F01F025B094FF0010C0CFA02F2FFF79C
:10308000A3FF002008BDB3F59F7FEED9E4E723F04E
:103090008053EDE70548F5E70448F3E70348F1E717
:1030A0000000025200000254A3000010010086013B
:1030B000134B984214D0134B984218D1B1F1805F52
:1030C00017D3114B994216D80E4B98420CD0B1F53C
:1030D000806F12D201F5806140F8212000207047F6
:1030E000B1F59F7FF0D9E6E721F08051EFE707487F
:1030F000704706487047054870470020704700BF7A
:103100000000025200000254A300001001008601DA
:1031100018B1012814D0002070470139082906D8B9
:10312000DFE801F01306080A050505050C007047E5
:10313000042070470120704701207047012070472C
:10314000022904D0032903D1704705207047704736
:103150000020704718B1012807D0002070470129CE
:1031600007D0072907D101207047012904D000208A
:10317000704702207047704703207047F8B5164625
:103180001D46070A4FEA104CC0F30740012800D93A
:1031900001BEFFB218BB0A23BB4200D801BE01BB6F
:1031A0005FFA8CF439462046FFF7B2FFB04241D9AE
:1031B000FF2D41D84FEA446C0CF1A44C0CF5802C47
:1031C00006EBC72707F580675CF8273023F47F43B9
:1031D0002D02ADB22B434CF82730002004E006232B
:1031E000DAE7012901D01948F8BD1CF0FF0025D10C
:1031F000012F03D0082F23D1012300E00423B34281
:1032000020D9B5F5803F1FD2430603F1A44303F54F
:10321000802306EBC72606F5A06653F826206FF339
:1032200017222D0225F07F4525F0FF052A4343F89C
:103230002620D9E70548D7E70448D5E70348D3E770
:103240000248D1E70148CFE70048CDE701004A0036
:103250002DE9F8430C4616461F46050A4FEA10486A
:10326000C0F30740012800D901BEEDB250B90A23CE
:10327000AB4200D801BE022C06D03348032C39D013
:10328000BDE8F8830623F3E75FFA88F92946484644
:10329000FFF760FFB04227D9B7F5803F26D2089BE1
:1032A0001F2B25D84FEA496909F1A44909F580295E
:1032B00006EBC52303F5C06359F823206FF31722EB
:1032C000390221F07F4121F0FF010A4349F8232010
:1032D00059F8232022F0F8020899C900C9B20A431C
:1032E00049F823200020C9E71748C7E71648C5E773
:1032F0001548C3E718F0FF08C2D1012DC0D1002E38
:10330000BED1B7F1807FBBD2089B1F2BB8D84FEA44
:10331000486808F1A44303F5802306EBC52101F5B5
:10332000E06153F82120D2B242EA072243F821207B
:1033300053F8210020F0F800089AD200D2B20243DC
:1033400043F8212030469BE701004A002DE9F04177
:1033500005460C461746060A4FEA1048C0F30743D5
:10336000012B00D901BEF6B2ABB90A23B34200D893
:1033700001BE032C44D834B931465FFA88F0FFF718
:10338000C7FEB8421DD8012C07D0022C12D0032C46
:103390002BD01E4835E00623E8E718F0FF0FF4D1E4
:1033A000012E05D0082EF0D101239F4209D3ECE76E
:1033B0000423FAE731465FFA88F0FFF7CBFEB84204
:1033C000E5D9240204F44074FFB24FEA486808F1DA
:1033D000A44808F580283C43F60256FA85F505F521
:1033E000407548F8254000200BE018F0FF0F0AD187
:1033F000012E01D0054804E0002FE2D0034800E090
:103400000248BDE8F0810148FBE700BF01004A0027
:10341000F8B50C461646050A070CC0F3074001280C
:1034200000D901BEEDB2A0B90A23AB4200D801BE5B
:10343000032C41D82CB92946F8B2FFF769FEB042F7
:103440001CD8012C07D0022C12D0032C29D01C48E8
:1034500033E00623E9E717F0FF0FF4D1012D05D083
:10346000082DF0D101239E4208D3ECE70423FAE7AC
:103470002946F8B2FFF76EFEB042E6D9240204F402
:103480004074F6B27F0607F1A44707F5802734435E
:1034900044F0034444F47F046D037C517B590020C5
:1034A0000BE017F0FF0F09D1012D01D0044804E013
:1034B000002EE3D0024800E00148F8BD0048FCE7D8
:1034C00001004A00F8B50C461646050A070CC0F381
:1034D0000740012800D901BEEDB2A0B90A23AB42D2
:1034E00000D801BE032C3ED82CB92946F8B2FFF70C
:1034F0000FFEB0421CD8012C07D0022C12D0032C96
:1035000026D01B4830E00623E9E717F0FF0FF4D17F
:10351000012D05D0082DF0D101239E4208D3ECE700
:103520000423FAE72946F8B2FFF714FEB042E6D9C1
:10353000240204F44074F6B27F0607F1A44707F5AD
:103540008027344344F080446D037C5100200BE01D
:1035500017F0FF0F09D1012D01D0054804E0002E1E
:10356000E6D0034800E00248F8BD0148FCE700BF90
:1035700001004A0008B5FFF7E9FE08BD032800D99D
:1035800001BE064AD2F8903323F4E063000200F44F
:10359000E0600343C2F89033704700BF0010405210
:1035A000052800D901BE054AD2F8003323F00703ED
:1035B00000F007000343C2F8003370470010405288
:1035C000030AC0F30722C0B2012A00D901BE0528B0
:1035D00000D901BEFF290ED8DBB229335B0600F506
:1035E000807080011A5822F47F42090289B20A438E
:1035F0001A50002070470148704700BF01004A0080
:10360000012800D901BE052900D901BE1F2A00D911
:1036100001BE2930890101EB406144F21003C85812
:10362000D04000F0010070470D280AD8064A00F586
:10363000926052F8203043F0004342F820300020DE
:1036400070470248704700BF0000405201004A0026
:103650000D2806D800F59260034B53F82000C00FE8
:1036600070470020704700BF00004052F8B5054683
:103670000C4617461E46012800D901BE052C00D96C
:1036800001BE0D2E00D901BE1F2F00D901BE30464C
:10369000FFF7DEFF90B12935A10101EB456144F24E
:1036A00014040859012303FA07F220EA0200085122
:1036B00044F21003C8580243CA50F8BD3046FFF721
:1036C000B3FFE8E7431E0C2B0AD8064A00F59260C8
:1036D00052F8203023F0004342F820300020704799
:1036E000014870470000405201004A000D280FD8E1
:1036F0000F290FD8084A00F5926052F8203023F0C5
:103700000F0301F00F010B4342F8203000207047F7
:1037100002487047014870470000405201004A00CB
:103720000D2800D901BE00F59260034B53F820002C
:1037300000F00F00704700BF000040520D2810D865
:103740000F2910D8094A00F5926052F8203023F46E
:103750007063090201F470610B4342F820300020CD
:103760007047034870470248704700BF000040524E
:1037700001004A000D2800D901BE00F59260034BFC
:1037800053F82000C0F30320704700BF00004052F0
:103790000D2800D901BE064A00F5A070000113589B
:1037A00023F08043890701F080410B431350704799
:1037B000000040520D2800D901BE044A00F5A07057
:1037C0000001135843F0004313507047000040526B
:1037D0000D2800D901BE044A00F5A070000113585D
:1037E00023F000431350704700004052044BD3F8BD
:1037F000940300F00400003818BF0120704700BF98
:103800000010405210B504460A4AD2F8903343F0F3
:103810000803C2F8903303E0012003F08DFB013C64
:10382000FFF7E4FF08B9002CF6D10CB1002010BD61
:103830000148FCE70010405202004A0008B5054A62
:10384000D2F8703343F00043C2F87033FA2003F02B
:1038500073FB08BD00104052024B984201D8024B46
:103860001860704700E1F50594740334014B186843
:10387000704700BF9474033443681F2B00D901BE06
:1038800083680F2B00D901BE0F4BD3F86033002B98
:1038900017DB436803F01F038268120202F47062B0
:1038A0001A430A4B03F58051C1F8642303F54053D2
:1038B0001A6A017B0A431A620268054B1A600020EB
:1038C00070470448704700BF00104052000040524B
:1038D0009074033403004A00024BD3F8680300F0ED
:1038E000030070470010405238B5154BD3F86033D1
:1038F000002B20DB0546124AD2F8603343F0004328
:10390000C2F86033044603E0012003F015FB013CDC
:10391000FFF7E2FF032801D0002CF5D16DB10CB107
:1039200000200BE0064AD2F8603323F00043C2F8CF
:103930006033044802E0044800E0284638BD00BF78
:103940000010405202004A0003004A0008B5FFF789
:10395000C3FF032801D0002008BD014B1868FBE716
:1039600090740334014B1860704700BF90740334A7
:103970000120704708B5042804D8DFE800F01205DC
:1039800008030B0000200DE0FFF770FF0AE0FFF7CF
:10399000DDFF07E0FFF7ECFF08B9002002E0024876
:1039A00000E0024808BD00BF80F0FA0200127A0071
:1039B00070470000032908D940F21113994204D03E
:1039C00040F21313994200D001BE052818D8FF29F0
:1039D0000DD901F01F010B4B00F1400243F82210FA
:1039E00000F59060072243F820200020704701F086
:1039F000070100F59060034B43F82010002070474A
:103A0000014870470000405201004A000246052864
:103A100000D901BE02F59063074951F8230000F078
:103A20000700072800D07047403251F8220000F00C
:103A30001F0040F48070F6E70000405208B50528EA
:103A400000D901BEFFF7E2FF032807D8032803D8F7
:103A5000DFE800F028181B3A002015E040F21113AF
:103A6000984229D040F21313984211D0B0F5887FC4
:103A700006D1164BD3F88033002B1ADB002003E06D
:103A8000002001E0FFF7F2FE08BDFFF75FFFFBE754
:103A90000E4BD3F87033002B01DB0020F4E74FF41A
:103AA0000040F1E7FFF764FF08B90020ECE70848A1
:103AB000EAE74FF40040E7E7FFF798FE08B9002077
:103AC000E2E74FF40040DFE70248DDE70010405234
:103AD00080F0FA0200127A00012800D901BEB0304D
:103AE0004001024B1858C00F704700BF0000405201
:103AF00038B5012800D901BE084DB03044012B591A
:103B000023F0405343F000532B51012003F014FAEB
:103B10002B5923F000432B51002038BD00004052A8
:103B200038B505460C460A68002313610A68137508
:103B30000A6853750A6893750A68D3750A680F2175
:103B4000916122681362236828225A622368202226
:103B50009A6222682723D362226823211163226894
:103B60002C20906322682420D0632268136420688C
:103B70001C2242642068C264206802652268536582
:103B800023689965012D00D901BE2846FFF7A4FFDF
:103B9000002840F0C980226891784B1EDBB20F2BC1
:103BA00000F2C4805378002B00F0C280102B00F28A
:103BB000C18010780F2840F2BF80C82800F2BE8074
:103BC00092F804C0BCF1020F00F09F801B0203F4C6
:103BD000F8530343090401F4F8110B43D278D206D9
:103BE00002F000621343564A05F1B001480102EBAE
:103BF000411C13502068836823F07F43017B090731
:103C000001F0E0410B43417B43EAC173CCF804303F
:103C100021680B69C3F30903087D000400F4E02068
:103C20000343487D000600F080700343887D000751
:103C300000F080500343C97D43EAC17302EB451293
:103C400041F20861535020688369C3F30A03017F7E
:103C5000490301F400510B43016A090501F44011C5
:103C60000B4341F20C61535021684B6A03F03F0350
:103C7000886AC00100F4FC500343C86A800300F462
:103C80007C200343086B400500F0FC600343496B54
:103C9000090701F0E0410B4341F2106153502168E4
:103CA0008B6B03F03F03C86BC00100F4FC5003436F
:103CB000086C800300F47C200343486C400500F04E
:103CC000FC600343896C090701F0E0410B4341F2BA
:103CD000146153502168CB6C03F03F03086DC001A1
:103CE00000F4FC500343486D800300F47C20034340
:103CF000886D400500F0FC600343C96D090701F0C1
:103D0000E0410B4341F2186153500D49B0356D014C
:103D10004B5923F0405322681279120702F04052A7
:103D200013434B51002000E0064838BD0648FCE72D
:103D30000548FAE70448F8E70348F6E70248F4E7DD
:103D40000000405203004A0001004A0038B5054611
:103D50000C46012800D901BE60220021206803F032
:103D6000ABF8224A05F1B003580102EB4311135896
:103D7000206803702068C3F3042C80F801C0206819
:103D8000C3F3044C80F802C02068C3F3C06C80F811
:103D900003C02068C3F3017303714B68216823F0EB
:103DA0007F408860206803F0E041003918BF01219E
:103DB00001732168DB0F4B7302EB451241F208637C
:103DC000D3582268D9B211612268C3F30241117538
:103DD0002268C3F3006151752268C3F300719175C5
:103DE0002268DB0FD375002038BD00BF00004052B1
:103DF00070B505460E46012800D901BE214905F1DE
:103E0000B0035B01CA5842F00042CA50344603E096
:103E1000012003F091F8013C6B0103F1A44303F589
:103E2000800341F21C629B5813F0010F01D1002C5A
:103E3000EED106B19CB105F1B0035B01114AD35834
:103E400003F04053B3F1005F01D0002070BDB035E6
:103E50006D01535943F0405353510020F6E7094E8A
:103E600005F1B0046401335923F0405343F000538B
:103E70003351012003F060F8335923F000433351EC
:103E80000148E3E70000405202004A002DE9F041FA
:103E90009AB00446012800D901BE02AD602200217B
:103EA000284603F009F8009500230193694620464F
:103EB000FFF74CFF2046FFF70FFE38B1009B1B7940
:103EC000022B01D0012202E0002200E00022009B30
:103ED0001E785D7828469F78D3F80880CAB1CDB1A6
:103EE0000FB9384616E02046FFF7A8FD0446310A10
:103EF000360616EB080641F10001A0FB0606A5FBFD
:103F0000072304FB016102F005FE000E40EA0120D8
:103F100000E000201AB0BDE8F0810000034600B1C7
:103F200001BE60339B01024AD058C00F704700BFEA
:103F30000000405238B5044600B101BE084D60345F
:103F4000A4012B5923F0405343F000532B5101207F
:103F500002F0F2FF2B5923F000432B51002038BD13
:103F60000000405270B504460D46012800D901BE3C
:103F70002046FFF7D3FF002840F0DB806A68117805
:103F8000CB1FDBB2F22B00F2D6805378072B00F266
:103F9000D4809078072800F2D280D678022E00F0E4
:103FA000B9801B0203F4E0631943000300F4E0400E
:103FB0000143137941EAC371624A04F1600083014D
:103FC00002EB8010D1506E68B368C3F31403317BE9
:103FD000490501F460010B43717B090601F0706132
:103FE0000B4343606B68997BDB7B5B0703F00053FB
:103FF0000B4302EB841241F60801535069680B7CB5
:1040000003F01F03487C400100F478700343887C70
:10401000C00200F460500343C87C000400F4702028
:104020000343087D000500F4E0000343487DC0051C
:1040300000F0F0600343897DC90601F0F0410B43B5
:1040400041F60C0153506868C37D03F01F03017EE5
:10405000490101F478710B43417E090301F4805159
:104060000B4341F61001535069688B8BC98B43EAAF
:10407000014341F6140153506868036AC3F3120305
:1040800090F82410090501F480110B4390F82510D5
:10409000090601F080710B4341F61801535068681E
:1040A00090F8263090F82710490001F002010B43E8
:1040B00090F82810090401F480310B4390F829107E
:1040C000090501F480110B4341F61C015350696846
:1040D00091F82A3003F0070391F82B00C00000F09C
:1040E0000800034391F82C00000100F01000034386
:1040F000CE8D154800EA0640034391F83000400792
:1041000000F00050034391F8311043EAC17302F507
:10411000C15213600B496034A4010B5923F0405382
:104120006A68D278120702F0405213430B51002004
:1041300000E0064870BD0648FCE70548FAE7044879
:10414000F8E700BF000040520000FF1F03004A00D4
:1041500001004A0038B50C46054600B101BE3422C4
:104160000021606802F0A8FE594B05F16002900141
:1041700003EB82111A58606802706068C2F3022C67
:1041800080F801C06068C2F3023C80F802C0606839
:10419000C2F3017C80F803C06068D20F02714A68E4
:1041A0006168C2F3140088606168C2F3425008730A
:1041B0006168C2F303624A7303EB851341F6080298
:1041C0009A58616802F0010088736168C2F3407216
:1041D000CA7341F60C029A58616802F01F00087415
:1041E0006168C2F3441048746168C2F3C2208874E5
:1041F0006168C2F30340C8746168C2F30250087575
:104200006168C2F3C35048756168C2F3C3628A75BE
:1042100041F610029A58616802F01F00C875616883
:10422000C2F3441008766168C2F300324A7641F660
:1042300014029A5861688A836168120CCA8341F635
:1042400018029A586168C2F3120008626168C2F3EA
:10425000005081F824006168C2F3006281F82520D3
:1042600041F61C029A58616802F0010081F82600AC
:104270006168C2F3400081F827006168C2F3004022
:1042800081F828006168C2F3005281F8292003F503
:10429000C1531B68626803F0070182F82A10626844
:1042A000C3F3C00182F82B106268C3F3001182F8D7
:1042B0002C106268C3F30C41D1856268C3F340716E
:1042C00082F830106268DB0F82F83130002038BD90
:1042D0000000405270B50E46054600B101BE2249AD
:1042E00005F160039B01CA5842F00042CA503446AF
:1042F00003E0012002F020FE013CAB0103F1A443E6
:1043000003F5800341F61C029B5813F0010F01D105
:10431000002CEED106B19CB105F160039B01124A5D
:10432000D35803F04053B3F1005F01D0002070BDBB
:104330006035AD01535943F0405353510020F6E727
:10434000094E05F16004A401335923F0405343F0B2
:1043500000533351012002F0EFFD335923F00043A5
:1043600033510248E3E700BF0000405202004A0018
:104370002DE9F04391B0054600B101BE03AC3422F3
:104380000021204602F098FD00230193029401A928
:104390002846FFF7DFFE2846FFF7C0FD38B1029B35
:1043A000DB78022B01D0012402E0002400E000248D
:1043B00002990B7803F101084B785E1C8B785F1C27
:1043C000D1F808901CB9002011B0BDE8F083A81CFA
:1043D000FFF734FB0446B9F1000F07D1A6FB072312
:1043E00000FB08F0002102F095FBEDE74FEAD82131
:1043F0004FEA485313EB090341F10001A0FB030509
:10440000A6FB072304FB015102F084FB400D40EAA8
:10441000C120D9E708B5022805D8012805D90238F6
:10442000FFF77CFD08BD01BEF9E7FFF755FBF9E793
:1044300008B5022805D8012805D90238FFF77AFD0A
:1044400008BD01BEF9E7FFF753FBF9E708B50228FD
:1044500005D8012805D90238FFF784FD08BD01BE43
:10446000F9E7FFF75DFBF9E708B5022805D8012851
:1044700005D90238FFF72EFF08BD01BEF9E7FFF7A7
:10448000B7FCF9E708B5022805D8012805D9023894
:10449000FFF76EFF08BD01BEF9E7FFF7F7FCF9E78C
:1044A00038B50446052800D901BE2046FFF7C6FAF4
:1044B0000546022C01D9284638BD2046FFF7AAFF41
:1044C0000028F8D02046FFF7DDFF0546F3E738B5B2
:1044D0000546FFF74FF9441C2846FFF721F9FFF77F
:1044E000DFFF00EB5400B0FBF4F038BD38B52DED24
:1044F000028B0C460546002877D0002C77D02B681D
:104500000D2B00D901BE2868FFF7E1FF08EE100A65
:104510002879FFF72FFA07EE100AB8EE488AB8EEAE
:10452000477AA368C82B00D801BE6268A368013B24
:104530009A4200D301BE2268E368033307EE903A43
:10454000F8EE677AC7EE086A67EEA67AFDEEE77ABC
:1045500017EE903AA1685B1A9A4200DA01BE2B6806
:104560000D2B46D8244B03F58050D0F8002522F0BF
:104570000702297901F007010A43C0F800252A68DB
:1045800002F5A072120199586FF30F0120680138EB
:1045900080B2014399502A6802F5A07203EB02121F
:1045A00051686FF30F016068013880B201435160B8
:1045B0002A6802F5A07203EB0212516889B2A06862
:1045C000013841EA004151602A6803EB021341F2CD
:1045D00008401A586FF30F02E168013989B20A43A3
:1045E0001A500020BDEC028B38BD01BE85E701BE2C
:1045F00085E70248F6E700BF0000405201004A008C
:1046000010B52DED028B86B00191044680B1236870
:104610000D2B00D901BE002302930393049305934D
:1046200020680D2806D9284806B0BDEC028B10BDC5
:1046300001BEECE7FFF74BFF08EE100A2079FFF709
:1046400099F906EE100AB8EE488AB8EE466ADDED32
:10465000017AF8EE677AB6EE007A67EE877A77EE3F
:10466000A77ADFED1A5A35EEE77ABCEEC77A8DED00
:10467000037A37EEA57ABCEEC77A8DED047AC6EEE2
:10468000086A85EEA67ABCEEC77A17EE103A8DED71
:10469000057A033307EE103AB8EE477A66EE876A7A
:1046A0009FED0B7A26EE076A76EE866A77EEA67A9B
:1046B000FCEEE77A17EE903A0133029302A9204606
:1046C000FFF714FFB0E700BF01004A0000004843B5
:1046D00017B7D138082800D901BE082900D901BE72
:1046E000000100F1A44303F58203586880B2C8407A
:1046F00000F001005B681B0CCB405B0003F0020381
:104700001843831E012B00D970470220FCE70000EC
:1047100038B504460D46082800D901BE082D00D939
:1047200001BE29462046FFF7D5FF022801D00748E1
:1047300038BD240104F1A44404F582042368012255
:10474000AA40134323600020F2E700BFFF004200AD
:1047500038B504460D46082800D901BE082D00D9F9
:1047600001BE29462046FFF7B5FF022801D00748C1
:1047700038BD240104F1A44404F582042368012215
:10478000AA4023EA020323600020F1E7FF00420071
:1047900008B510B100F05DFB08BD01BEFAE708B531
:1047A00010B100F04EFB08BD01BEFAE708B538B104
:1047B0000A2900D901BEC9B200F030FB002008BDB3
:1047C00001BEF5E7014B43F820107047004040520E
:1047D00010B5084C084BD3F8203C002B05DB24B166
:1047E000013C012002F0A8FBF4E70CB1002010BD51
:1047F0000248FCE7A086010000104052020042007F
:1048000008B5052815D0062825D0012835D1052161
:104810001B48FFF7CBFF02211A48FFF7C7FF022111
:104820001948FFF7C3FF05211848FFF7BFFF002015
:1048300008BD02211248FFF7B9FF02211148FFF716
:10484000B5FF02211048FFF7B1FF00210F48FFF725
:10485000ADFF0020ECE700210948FFF7A7FF00218A
:104860000848FFF7A3FF00210748FFF79FFF00213B
:104870000648FFF79BFF0020DAE70548D8E700BFAE
:1048800000104152000022520010225200502252C9
:104890000100420008B5052811D006281DD00128C6
:1048A00029D105211548FFF781FF05211448FFF79D
:1048B0007DFF05211348FFF779FF002008BD022185
:1048C0000E48FFF773FF00210D48FFF76FFF00212F
:1048D0000C48FFF76BFF0020F0E700210748FFF7C7
:1048E00065FF00210648FFF761FF00210548FFF73B
:1048F0005DFF0020E2E70448E0E700BF00304152DE
:1049000000101054000010540100420008B5FFF7D9
:1049100077FF08BD08B50120FFF7F8FF08BD0000CC
:1049200008B50848FFF734FF022804D0052804D052
:1049300028B9062002E0052000E0012008BD002083
:10494000FCE700BF0010415208B5FFF7E9FF014B3B
:10495000186008BD9C74033410B5094C094BD3F89A
:10496000203C13F0010F05D124B1013C012002F0DD
:10497000E3FAF3E70CB1002010BD0348FCE700BFE9
:10498000A0860100001040520200420070B582B0C3
:1049900005460E46072800D901BE731EDBB2012B67
:1049A00008D9042E13D0082E16D001BE2B4B53F875
:1049B000254002E0294B53F82540012E0AD0022E53
:1049C00036D025466469002CFBD1002037E0234B0C
:1049D00053F82540002004E0204B53F82540ECE735
:1049E00064699CB11E4B98420ED0A3681E42F7D159
:1049F000E3681A6800925B68019323683146684651
:104A00009847184B1C60EBE7012EEED1012E01D028
:104A100002B070BD124B984204D0134B002243F8F1
:104A20002520F5E70F4B1A680F4B43F82520EFE7D9
:104A30000C4B1D68002DC8D02D69C6E72D69002DCF
:104A4000E6D0AB681E42F9D1EB681A6800925B6849
:104A500001932B68314668469847EFE7C0740334EA
:104A6000FF00420098740334A0740334044BD3F85D
:104A7000140C00F00300B0FA80F04009704700BF4A
:104A800000104052044BD3F8140C00F0030001282E
:104A900014BF0020012070470010405210B540F2B2
:104AA00006610220FFF78EFE40F206610320FFF749
:104AB00089FE40F206610420FFF784FE40F20661A1
:104AC0000520FFF77FFE40F23F210620FFF77AFE28
:104AD00040F23F210720FFF775FE40F207610420F6
:104AE000FFF770FE40F207610520FFF76BFE40F212
:104AF0000F610420FFF766FE40F20F610520FFF70B
:104B000061FE40F20F210420FFF75CFE40F20F210E
:104B10000520FFF757FE2B4AD2F8143C23F003037D
:104B200043F00203C2F8143CFFF752FE10B1264CCA
:104B3000204610BD044640F24331FFF743FE40F2E9
:104B400043310120FFF73EFE40F206210220FFF72D
:104B500039FE40F206210320FFF734FE3F210620F4
:104B6000FFF730FE3F210720FFF72CFE0A21082027
:104B7000FFF728FE40F242310020FFF723FE40F20B
:104B800042310120FFF71EFE40F202210220FFF712
:104B900019FE40F202210320FFF714FE40F20B2120
:104BA0000420FFF70FFE40F20B210520FFF70AFE5D
:104BB0001B210620FFF706FE1B210720FFF702FE40
:104BC000B6E700BF00104052FF00420010B540F2AF
:104BD00007610220FFF7F6FD40F207610320FFF7AF
:104BE000F1FD40F207610420FFF7ECFD40F20761A0
:104BF0000520FFF7E7FD40F23D610620FFF7E2FDEB
:104C000040F23D610720FFF7DDFD0F210820FFF78F
:104C1000D9FD40F206610220FFF7D4FD40F20661A3
:104C20000320FFF7CFFD40F206610420FFF7CAFD25
:104C300040F206610520FFF7C5FD40F22D61062018
:104C4000FFF7C0FD40F22D610720FFF7BBFD0B21F0
:104C50000820FFF7B7FD40F204610220FFF7B2FD24
:104C600040F204610320FFF7ADFD40F2046104202F
:104C7000FFF7A8FD40F204610520FFF7A3FD124AEB
:104C8000D2F8143C23F00303C2F8143CFFF7A0FD54
:104C900010B10E4C204610BD0B4AD2F8283C23F030
:104CA0000103C2F8283CFFF757FE044608B1074C41
:104CB000F0E740F22D210620FFF784FD40F22D2180
:104CC0000720FFF77FFDE5E700104052FF0042009C
:104CD00038B51A4BDB6903B301210720FFF756FEF5
:104CE000054628BB02F034F90446144BDB691BB1BE
:104CF00004210720FFF74AFEFFF7B8FE78B1FFF75F
:104D0000CDFE204602F02CF90C4BDB691BB10821CB
:104D10000720FFF73BFE284638BD0025E2E7FFF7F6
:104D2000B1FE0028EDD0FFF751FFFFF7B7FEE8E72F
:104D300002210720FFF72AFE014DECE7C07403347F
:104D4000FF0042002DE9F04104460D4690461F4603
:104D5000012B00D901BE284B234003B101BE264BD5
:104D60002B40B3F1804F00D001BE84EA050616F453
:104D7000F85603D0214E3046BDE8F08102F0E8F845
:104D800015F480311DD0C5F3042303F5A813203397
:104D90001B0253FA85F39B001A686FF30902E4B211
:104DA000B8F1000F0BD04FF480710C437F0207F471
:104DB00000773C4322431A6002F0D2F8DBE7314629
:104DC000F3E7C5F3042303F5A41320331B0253FABE
:104DD00085F5AD002A686FF30902E4B2B8F1000F5F
:104DE00001D04FF480710C437F0207F4007744EA4E
:104DF000070313432B60DFE700E0FEFF0100CE0056
:104E0000054A136823F0404343F08043136013685E
:104E100043F000431360704700C04052034670B136
:104E20000A2900D901BE1A6822F00F02114341F489
:104E3000807119609A6812F4807FFBD0704701BEC0
:104E4000EEE7034618B1986800F00F00704701BE06
:104E5000F9E7034618B1186800F00F00704701BE6B
:104E6000F9E700008446006B10B9DCF82C3093B3EE
:104E700010B1DCF82C302BB148B9DCF82C300BB970
:104E8000034605E001BE1448704713481FE00023A5
:104E900098421FD910B502E00133984216D9DCF8C8
:104EA0002C2002EBC30E52F833404A689442F3D1EF
:104EB000BEF804408A689442EED19EF806303BB9B1
:104EC0009CF80330002BE0D1002000E0024810BD28
:104ED0000020FCE7004870470300660930B5204B0E
:104EE0001D78204B984204D90A1803F580239A4272
:104EF00030D951BB002030BD0133DBB21A4A02EB7E
:104F0000CC0212799A4218D9174A52F83C2003EB86
:104F1000430402EB840E52F82440DEF804202244BD
:104F20008442E9D89042E7D29EF80840A4B90144EF
:104F3000914213D9111A1046DEE70CF1010C5FFA09
:104F40008CFCAC4504D20023D8E74FF0000CF8E706
:104F50000020D0E70120CEE70020CCE70120CAE7FF
:104F6000B0241018FFFF0348B42410180346002093
:104F700018605860704700002DE9F8430F4614464A
:104F80009846089D099E8146A8B1B4B1BDB1C6B18D
:104F900007EB0803042B5DD8F9004846FFF79EFF96
:104FA00000285AD04FEAC8012046FFF797FF50B1BA
:104FB0004FF0000C15E001BEE7E701BEE6E701BED9
:104FC000E5E701BEE4E7264845E009EBCC0205EB46
:104FD000CC0359F83C1045F83C1052685A600CF16B
:104FE000010C6745F1D84FF0000C0BE004EBCC024C
:104FF00006EBCC0354F83C1046F83C1052685A605B
:105000000CF1010CE045F1D8002400E00134A74286
:105010000CD905EBC40355F834000028F6D05968C4
:10502000FFF75CFF0028F1D10D4814E0002400E0F8
:105030000134A0450CD906EBC40356F8340000280F
:10504000F6D05968FFF74AFF0028F1D1044802E082
:10505000002000E00348BDE8F8830148FBE700BFFB
:10506000030066090000660901F1030C2CF0030C33
:10507000BCF1B40F15D870B51E46614513D81D6834
:10508000CCF1B404A54210D805EB0C0415440A4633
:105090000146284601F03CFF049B1D60346000205F
:1050A00070BD034870470248FAE70148F8E700BFBF
:1050B000080066092DE9F041C4B007460D461446C4
:1050C0001E469DF82881B422002107A801F0F4FEB5
:1050D0000023069334AB01933CAB00934346324626
:1050E00021462846FFF748FF054678B93C9B002B30
:1050F00000F0C980349B002B00F0C7803D9B0F2B34
:1051000040F2C580359B072B40F2C3801DB1284675
:1051100044B0BDE8F08105AB009306AB07AA3D990A
:105120003C98FFF7A1FF05460028F0D104AB00939F
:1051300006AB07AA35993498FFF796FF0546002875
:10514000E5D105994B6813B143F080534B60CB68B0
:1051500010333D9A934201D0544DD8E7049B5B68CD
:105160000833359A934201D0504DD0E70B78012B8C
:1051700000F2918057F82330002B00F08E804A789F
:10518000D868824280F08B80986850F822508878E6
:10519000A84280F086805B6853F82270342303FBBA
:1051A0000077002F7FD03846FFF75CFE05460028C9
:1051B000ADD1059BDA68BB689A4215D3049B5A6847
:1051C000FB689A4211D2394D0FE001339C420ED94F
:1051D00044AA02EBC30252F81C1CDA1C57F8222026
:1051E0009142F2D2314DF0E7304D0123EEE7012339
:1051F00000E0013398450BD944AA02EBC30252F8F0
:105200003C1CDA1D57F822209142F2D2274DF0E7DC
:10521000002D7FF47CAF012600E00136B4421AD99C
:10522000731E3B441B7F002BF7D044AB03EBC6033C
:1052300053F81C1C53F8200C03AB009306AB07AAD1
:10524000FFF712FF054630B944AB03EBC603039AE0
:1052500043F8202CE1E7002D7FF459AF7E68631EF0
:1052600008F1FF32D2B2019236AA0092DBB23EAA16
:1052700004990598B047049B1860359A04993498AE
:1052800001F046FE43E7094D41E7084D3FE7074D72
:105290003DE7064D3BE7064D39E7054D37E7044D41
:1052A00035E7044D33E7034D31E700BF00006609E1
:1052B00004006609010066090160704700687047D4
:1052C000026881EA12614B0483EA814383EAC133B5
:1052D00083EA81334B4083EA02230360704770B551
:1052E00082B005460E46114601A8FFF7E5FF0024EF
:1052F00004E0315D01A8FFF7E3FF0134AC42F8D3CD
:1053000001A8FFF7DBFF02B070BD01207047FFF777
:10531000FEBFFFF7FCBFFFF7FABFFFF7F8BFFFF7CD
:10532000F6BFFFF7F4BFFFF7F2BFFFF7F0BFFFF7DD
:10533000EEBF704740684B68984214BF00200120C0
:10534000704700002DE9F04395B004460D4617461E
:10535000244B93E8030084E8030007AA603393E832
:10536000030082E80300204E85EA06030C950D93A6
:105370000C9B04930D9B059312AB04AD95E80300C1
:1053800083E8030009AA82E803004FF01809CDF86A
:1053900018900DEB09084FF0FF3241461420FFF73B
:1053A0009EFF0B9088EA0606CDF838800F96CDF860
:1053B00010900E4B059310AB95E8030083E80300B3
:1053C00002AD0197009103460EAA06CA284600F0D6
:1053D0000FF895E8030084E80300204615B0BDE807
:1053E000F08300BF4C0C10183C5AC3A5245AC3A527
:1053F00082B010B582B00446CDE900120593079B38
:10540000DDE9001200F05AF8204602B0BDE8104075
:1054100002B070470346034A92E8030083E80300A2
:1054200018467047C40C101803460E4A1068002234
:1054300043F697218A4202D8016800290ADA43F626
:1054400097218A4208D8084A92E8030083E80300BB
:10545000184670470132EBE7044A92E8030083E8FC
:105460000300F5E7200C1018C40C1018CC0C101811
:1054700084460D4B1968002300E001330B4A934228
:1054800002D8CA69002AF8DB084A934206D8084BBA
:1054900093E803008CE8030060467047054B93E8EF
:1054A00003008CE80300F7E7200C1018FF93357712
:1054B000C40C1018CC0C1018704700002DE9F041F6
:1054C000A2B0044602A880E806001E46974F08AD29
:1054D00007F1100393E8030085E80300029B04939F
:1054E000039B059306AB04AA92E8030083E803003C
:1054F00031466846FFF78EFFDDE9000185E80300CD
:105500000AAB97E8030083E803000A9A089B9A42D3
:1055100008D008AB93E8030084E80300204622B0DB
:10552000BDE8F081FFF7F1FE0028F2D0089D0CAB3A
:10553000D7E9000183E803000D9A7D4B53409D425B
:10554000E7D1FFF7E2FE0028E3D00EABD7E9000178
:1055500083E8030004AA82E80300059A744B5340D1
:10556000049A934222D1714A10AB92E8030083E877
:10557000030008A91846FFF7DDFE0028C9D0314610
:105580006846FFF751FF08ABDDE9000183E803003F
:10559000664A12AB92E8030083E80300129A089B64
:1055A0009A4206D03046FFF787FFB2E7FFF7AFFE1B
:1055B000D9E7FFF7AAFE0028F4D0089D5B4A14AB98
:1055C00092E8030083E80300159A594B53409D422B
:1055D000E8D1FFF79AFE0028E4D0544A16AB92E8CF
:1055E000030083E8030004AA82E80300059A504BF5
:1055F0005340049A934240F090804C4A18AB92E892
:10560000030083E8030008A91846FFF793FE00286B
:10561000C8D0484B1D68069BEB60079B2B61BFF30E
:105620005F8FBFF34F8FBFF36F8F0123AB603146A6
:105630006846FFF71DFF08ABDDE9000183E80300C2
:105640003A4A1AAB92E8030083E803001A9A089BCF
:105650009A42A7D1FFF759FE0028A3D0089F334AEA
:105660001CAB92E8030083E803001D9A304B5340C3
:105670009F4297D1FFF749FE002893D02B4A1EABDB
:1056800092E8030083E8030004AA82E80300059A75
:10569000274B5340049A934242D1244A20AB92E8CC
:1056A000030083E8030008A91846FFF743FE00281B
:1056B0003FF478AFEB6808932B690993089A069B2F
:1056C0009A427FF46FAFFFF720FE00283FF46AAFE5
:1056D000069A0999164B4B409A427FF463AFFFF745
:1056E00014FE00283FF45EAF04AB0999089883E8E4
:1056F0000300059A0E4B5340049A934213D106A916
:1057000008A8FFF717FE00283FF44CAF08AB0A4A81
:1057100092E8030083E8030044E7FFF7F8FD6CE735
:10572000FFF7F5FDB9E7FFF7F2FDE8E7C40C101845
:105730003C5AC3A5200C1018DC0C1018FEE71EF014
:10574000400F08D01EF0040F0CBFEFF30880EFF3FA
:10575000098000F0D5B8EFF3948010F0020F0CBF71
:10576000EFF38880EFF3898000F0CAB8704708B57E
:1057700001F0DEFB08BD08B501F0DAFB08BD08B595
:1057800001F0D6FB08BD08B501F0D2FB08BD08B595
:1057900001F0CEFB08BD08B501F0CAFB08BD08B595
:1057A00001F0C6FB08BD08B501F0C2FB08BD08B595
:1057B00001F0BEFB08BD000008B5184A536B23F08A
:1057C00040435363A2F50072D2F8883043F470036B
:1057D000C2F88830124A0AE01068516850F8230075
:1057E00041F82300013391688B42F5D30C320D4B05
:1057F0009A4201D20023F6E70B4A08E01168002024
:1058000041F82300013351688B42F7D30832074B2C
:105810009A4201D20023F6E7FCF762FF00EF00E0B6
:10582000786F1018906F1018906F1018986F1018EC
:1058300010B52E4B1A6822F000421A601A6842F026
:1058400000421A6072B60023D522D42B27D8C2F1A9
:10585000D501274850F82140264840F82340D01869
:10586000D5280AD1234850F82100214951F82310A6
:1058700088420BD1013A0133E7E730BFFDE7FCE78F
:10588000FBE7FAE7F9E7F8E7F7E7F6E730BFFDE708
:10589000FCE7FBE7FAE7F9E7F8E7F7E7F6E7154B88
:1058A000154A9360BFF35F8F9268934208D030BF70
:1058B000FDE7FCE7FBE7FAE7F9E7F8E7F7E7F6E7E4
:1058C0000E4B83F30A88BFF35F8FEFF30A82934294
:1058D00008D030BFFDE7FCE7FBE7FAE7F9E7F8E7B8
:1058E000F7E7F6E700F012F8FFF766FF0030225204
:1058F000000410180070033400ED00E00078053457
:1059000008B501F029FB08BD00BF704708B5FFF7D7
:10591000FBFF024B0F22C3F8C02008BD0000265237
:1059200008B50020FEF7D3FD0D4B18600D4B186035
:1059300000F5742303F23F230B4AA2FB03239B0CC5
:105940000A4A136000F2E730094BA3FB00308009DC
:10595000084B18600020FEF7BAFD074B186008BD21
:10596000647303345C73033483DE1B435473033466
:10597000D34D6210587303346073033408B500F0DC
:10598000E7F800F07BF900F061FF00F0D5FA00F0D5
:10599000DDFD00F0A3FB00F0C7FD08BD08B5FFF773
:1059A000EDFF08BD00B583B010230093002308224B
:1059B00004210448FDF75CF80348FDF74DFF03B0F0
:1059C0005DF804FB8003815200366E0138B5044651
:1059D0000D461146FDF7B2FE29462046FDF786FE2C
:1059E00004B938BD2046FDF71FFEFAE730B583B095
:1059F00004461D4600908DF8041011466846FEF7D7
:105A0000FFFD29462046FDF7C3FE2046FDF7D2FEE6
:105A100003B030BDFEE7000030B583B00C4D00246C
:105A20000094234622460121284601F089FA009479
:105A3000234622462146284601F082FA0548FDF712
:105A4000E1FE08B903B030BD0520FFF7E3FF00BF5A
:105A50000009815240420F0030B583B0134D00243D
:105A60000094234622462146284601F069FA009414
:105A7000234622460121284601F062FA0C48FDF730
:105A8000FBFE0C4B98420BD040F6B830FDF72CFFD4
:105A9000094B984207D00948FDF764FF03B030BDB9
:105AA0000120FFF7B7FF0120FFF7B4FF8009815203
:105AB0001C0D101801004A0002004A000080060177
:105AC00008B50220FEF7B4FC08490220FEF7BEFC30
:105AD00030B942F210710220FEF7C6FC18B908BDB9
:105AE0000320FFF797FF0320FFF794FF6873033449
:105AF00008B50020FEF79CFC08490020FEF7A6FC34
:105B000030B942F210710020FEF7AEFC18B908BDA2
:105B10000320FFF77FFF0320FFF77CFF0C740334A3
:105B200008B50120FEF784FC08490120FEF78EFC31
:105B300030B942F210710120FEF796FC18B908BD89
:105B40000320FFF767FF0320FFF764FFA47303340C
:105B5000F8B5FDF72DFF00210320FDF72BFF0321F2
:105B60000020FDF7C3FD00210846FDF7E7FDFFF724
:105B700047F9022403E02046FEF75AFC013C002CC2
:105B8000F9D1FDF75BFEFFF747FFFFF765FF002048
:105B9000FDF706FDFFF706FF254600E00135052D60
:105BA00008D8032DFAD0304B33F815102846FDF7EE
:105BB00001FFF3E7254600E001350D2D0CD8002D3F
:105BC000FAD02A4B53F82530002BF5D05A781978A3
:105BD0002846FFF7FBFEEFE70020FDF7CFFCFFF7BD
:105BE0006FFF234D234FC5F818724FF00166C5F8BB
:105BF0001C62FFF77DFFC5F83872C5F83C62FFF7FD
:105C00008FFF254603E02846FDF75CFD01350D2D8D
:105C10000CD8164B53F82530002BF4D0002DF5D1BD
:105C20005A7819782846FFF7D1FEEFE700210320C4
:105C3000FDF7C0FEC82001F07FF9FFF771FE03E019
:105C40002046FDF7C5FD01340D2C0BD80A4B53F847
:105C500024100029F4D00B7A4A6809782046FFF70F
:105C6000C5FEF0E7F8BD00BF2C0D1018700D101820
:105C7000003040520A191F92380D101830B583B009
:105C800001210220FDF79CFC012140F20110FDF7EB
:105C900097FC032140F20310FDF792FC002211460D
:105CA0004FF48070FDF70EFC0623002211464FF4DE
:105CB0008070FDF763FA002211464FF48070FDF703
:105CC000A7FB012200214FF48070FDF7FBFB0923A5
:105CD000012200214FF48070FDF750FA01220021CB
:105CE0004FF48070FDF794FB022200214FF4807086
:105CF000FDF7E8FB0023022219464FF48070FDF700
:105D00003DFA022200214FF48070FDF781FB03224F
:105D100000214FF48070FDF7D5FBF9230322002109
:105D20004FF48070FDF72AFA032200214FF48070AF
:105D3000FDF76EFB002201214FF48070FDF7C2FBDE
:105D40000923002201214FF48070FDF717FA002289
:105D500001214FF48070FDF75BFB012211464FF4E7
:105D60008070FDF7AFFB5623012211464FF480707F
:105D7000FDF704FA012211464FF48070FDF748FB4D
:105D8000022201214FF48070FDF79CFB42F20F7359
:105D9000022201214FF48070FDF7F0F90222012167
:105DA0004FF48070FDF734FB032201214FF4807023
:105DB000FDF788FB4CF24F33032201214FF4807032
:105DC000FDF7DCF9032201214FF48070FDF720FB81
:105DD000002202214FF48070FDF774FB1023009322
:105DE0006B23002202214FF48070FDF731FA00226C
:105DF00002214FF48070FDF70BFB012202214FF4CA
:105E00008070FDF75FFB0024009441F2873301228C
:105E100002214FF48070FDF71BFA012202214FF49A
:105E20008070FDF7F5FA224603214FF48070FDF7EC
:105E300049FB00943E4B224603214FF48070FDF74E
:105E400007FA224603214FF48070FDF7E1FA22465B
:105E500002214FF4E060FDF735FB00942346224613
:105E600002214FF4E060FDF7F3F9224602214FF4DE
:105E7000E060FDF7CDFA224621464FF41060FDF7B1
:105E800021FB0723224621464FF41060FDF776F9E7
:105E9000224621464FF41060FDF7BAFA254D2246FE
:105EA00002212846FDF70EFB00941723224602210B
:105EB0002846FDF7CDF9224602212846FDF7A8FA2B
:105EC000012202212846FDF7FDFA00940323012256
:105ED00002212846FDF7BCF9012202212846FDF7E0
:105EE00097FA224621464FF48130FDF7EBFA012361
:105EF000224621464FF48130FDF740F922462146E3
:105F00004FF48130FDF784FA05F5007522462146ED
:105F10002846FDF7D7FA0123224621462846FDF7F9
:105F20002DF9224621462846FDF772FA03B030BD0E
:105F3000D9B407000001010008B50923002205219A
:105F40001046FDF793FB0A23112201210020FDF7E3
:105F50008DFB002211464FF41060FDF70BFB01236F
:105F6000002219461846FDF781FB012202215848FC
:105F7000FDF7ECF90A23062201210020FDF776FB4C
:105F8000002201214FF48070FDF7E0F90A23072277
:105F900001210020FDF76AFB0122114640F20110A9
:105FA000FDF7D4F90A23092201210020FDF75EFB49
:105FB0000022022140F20310FDF7C8F90A231A4615
:105FC00001210020FDF752FB002211464FF48270A0
:105FD000FDF7BCF90A230F2201210020FDF746FB43
:105FE0000122002140F20910FDF7B0F9012303223C
:105FF00011461846FDF73AFB002211464FF4813056
:10600000FDF7A4F90123042203211846FDF72EFB16
:10601000002211462F48FDF799F90123052203219B
:106020001846FDF723FB0123022219461846FDF707
:106030001DFB0123032219461846FDF717FB012318
:106040001A4619461846FDF711FB00220221224884
:10605000FDF77CF90A23042201210020FDF706FB4D
:106060000222012140F20D10FDF784FA0A230422D6
:1060700001210020FDF7FAFA022200214FF4877077
:10608000FDF778FA0A23042201210020FDF7EEFA39
:10609000032201214FF48970FDF76CFA0A230422D0
:1060A00001210020FDF7E2FA032200214FF48A705B
:1060B000FDF760FA0A23042201210020FDF7D6FA39
:1060C0000122022140F21B10FDF754FA08BD00BF67
:1060D00002010100000301000001010010B5AE4AF9
:1060E0000121AE48FCF72CFDAD4CAE4A0021204604
:1060F000FCF726FDAC4A01212046FCF721FDAB4A06
:1061000002212046FCF71CFDA94A03212046FCF78A
:1061100017FDA84A0021A848FCF712FDA74CA84A81
:1061200000212046FCF70CFDA64A01212046FCF781
:1061300007FDA54CA54A00212046FCF701FDA44A15
:1061400001212046FCF7FCFCA24A02212046FCF774
:10615000F7FCA14A03212046FCF7F2FC9F4A0421E8
:106160002046FCF7EDFC9E4A05212046FCF7E8FCA2
:106170009C4A06212046FCF7E3FC9B4A0721204667
:10618000FCF7DEFC994C9A4A05212046FCF7D8FC26
:10619000984A07212046FCF7D3FC8034964A002118
:1061A0002046FCF7CDFC954A01212046FCF7C8FCAF
:1061B000934A03212046FCF7C3FC924A052120465E
:1061C000FCF7BEFC904A06212046FCF7B9FC8F4A3A
:1061D00007212046FCF7B4FC80348D4A002120467C
:1061E000FCF7AEFC8B4A01212046FCF7A9FC8A4A49
:1061F00003212046FCF7A4FC884A05212046FCF731
:106200009FFC874A06212046FCF79AFC854A072115
:106210002046FCF795FC8034834A00212046FCF799
:106220008FFC824A02212046FCF78AFC8034804A97
:1062300000212046FCF784FC7E4A01212046FCF721
:106240007FFC7D4A02212046FCF77AFC7B4A032131
:106250002046FCF775FC7A4A04212046FCF770FCC6
:10626000784A06212046FCF76BFC8034764A0021F0
:106270002046FCF765FC754A03212046FCF760FCCC
:10628000734A04212046FCF75BFC724A0621204633
:10629000FCF756FC0A23022201210020FDF7E6F953
:1062A0000022032140F22D10FDF750F880346A4A95
:1062B00000212046FCF744FC684A01212046FCF7F7
:1062C0003FFC674A02212046FCF73AFC654A03215D
:1062D0002046FCF735FC644A04212046FCF730FCDC
:1062E000624A05212046FCF72BFC614A01216148E6
:1062F000FCF726FC04F500745F4A00212046FCF7F9
:106300001FFC5E4A01212046FCF71AFC5C4A022170
:106310002046FCF715FC5B4A03212046FCF710FCE5
:10632000594A05212046FCF70BFC584A0621204615
:10633000FCF706FC564A07212046FCF701FC803496
:10634000544A00212046FCF7FBFB534A012120461A
:10635000FCF7F6FB514A07212046FCF7F1FB504AB7
:1063600007215048FCF7ECFB04F500744E4A00216D
:106370002046FCF7E5FB4D4A01212046FCF7E0FBF7
:106380004B4A02212046FCF7DBFB4A4A0321204608
:10639000FCF7D6FB10BD00BF6C1C1018000081522A
:1063A00000004754301C1018F41B1018B81B1018AC
:1063B0007C1B1018401B1018000181528001815273
:1063C000041B1018C81A101800004B548C1A10180F
:1063D000501A1018141A1018D81910189C191018DF
:1063E0006019101824191018E818101800038152A9
:1063F000AC1810187018101834181018F817101856
:10640000BC17101880171018441710180817101808
:10641000CC161018901610185416101818161018BC
:10642000DC151018A0151018641510182815101870
:10643000EC141018B0141018741410183814101824
:10644000FC131018C01310188413101848131018D8
:106450000C131018D012101894121018581210188B
:106460001C121018E0111018A4111018681110183F
:106470002C11101880078152F0101018B410101849
:10648000781010183C10101800101018C40F1018B5
:10649000880F10184C0F1018100F1018D40E101869
:1064A000980E1018000A81525C0E1018200E101859
:1064B000E40D1018A80D10184368DBB29A4200D9F9
:1064C00001BE036843F0010303604FF0000C9445E4
:1064D00029D210B50CE04FF0000E43EA0E0343F052
:1064E000010303610CF1010C5FFA8CFC944519D295
:1064F0004FEA0C1301EB0C1ECB5C8360DEF804301A
:1065000023F01F03C360DEF80430DEF808402344A4
:10651000013B23F01F039EF80C40002CDBD04FF012
:10652000020EDAE710BD704708B504220549064897
:10653000FFF7C2FF00F0D8F800F070F900F07AF928
:1065400008BD00BF981D1018D0ED00E008B500236D
:106550001A4602493D20FEF7F5FB08BD0100004048
:1065600008B5FEF7D7F9FEF7B3FB0120FEF7CEF929
:106570000120FEF78FF9FEF7E7F900F011FA012389
:10658000002204211846FDF771F804210620FEF7C9
