:02000004605842
:1004000000000420152B5860212A5860292A5860C2
:10041000452A5860472A5860492A58600000000061
:10042000000000000000000000000000211C00008F
:100430000000000000000000B11B0000791800005F
:100440004B2A58604B2A58604B2A58604B2A5860F8
:100450004B2A58604B2A58604B2A58604B2A5860E8
:100460004B2A58604B2A58604B2A58604B2A5860D8
:100470004B2A58604B2A58604B2A58604B2A5860C8
:100800004B2A5860F8B500BFF8BC08BC9E4670473C
:10081000F8B500BFF8BC08BC9E467047434D35355F
:10082000205461736B00000049444C4500000000F7
:10083000546D725100000000546D722053766300B5
:1008400022000000010000000600000000002A4213
:1008500000001D4400000000000000000000000037
:100860000000000000000000000000000000000088
:1008700040D0404200800000008000800101000064
:100880000000000000000000000000000000010067
:100890000100000000D00F24FFFF0F240100000022
:1008A000040000000200000000C02F26FFBF332616
:1008B00001000000040000000300000000C0332617
:1008C000FFFF4F260100000004000000110000009F
:1008D0000B0000000C000000000000000348044B67
:1008E000834202D0034B03B118477047C800002071
:1008F000C800002000000000064B0749C91A8910F3
:1009000048BF0131491003D0044B0BB101481847CF
:10091000704700BFC8000020C80000200000000091
:1009200010B5064C237843B9FFF7D8FF044B13B139
:100930000448AFF300800123237010BD6001002044
:1009400000000000C02A000008B5054B1BB1054996
:100950000548AFF30080BDE80840FFF7CDBF00BFFA
:100960000000000064010020C02A0000A3F5803AC6
:10097000704700BF174B002B08BF134B9D46FFF776
:10098000F5FF00218B460F461348144A121A02F055
:1009900083FD0E4B002B00D098470D4B002B00D051
:1009A00098470020002104000D000D48002802D0C7
:1009B0000C48AFF3008002F0EBFD2000290000F0AE
:1009C00073F802F0A5FC00BF000008000000000062
:1009D000152C58600000042060010020B00E00209B
:1009E0000000000000000000002807DB00F01F02EC
:1009F000400901239340024A42F82030704700BF6B
:100A000000E100E008B5002002F066FEFBE7000010
:100A100008B5024802F064FE08BD00BF7C0100205A
:100A200008B5024800F04AF908BD00BF8001002067
:100A300000B583B0154A92E80300CDE900011449DE
:100A4000684600F02FFD00B101BEBDF90000FFF7C0
:100A5000CBFF1049104800F065FC00B101BE0F4A01
:100A6000536D43F0011343F4807353653E2002F04D
:100A70001BFE0B490B4800F054F800B101BE0948B9
:100A800002F022FE03B05DF804FB00BF400858608E
:100A9000210A58607808586040D0404200D0404257
:100AA000700858608001002000B583B002F04EFA53
:100AB00000B101BEFFF7ACFFFFF7BAFF62B600233B
:100AC0000193062200924FF400720649064802F094
:100AD00023FE012803D0002003B05DF804FB02F0E0
:100AE000DFFDF8E71C085860050A586010B5044699
:100AF00002F0CEFD2268022393619269226813629C
:100B000002F0F6FD10BD10B5044602F0C1FD2368E9
:100B100002229A619B69236800221A6202F0E8FDB2
:100B200010BD034650B159B10A681A60002018740C
:100B30009860D86058744A685A60704701BEF2E7FE
:100B400001BEF1E708B558B101B101BE437C03F025
:100B5000FE0343741343437422B1FFF7C7FF08BD7C
:100B600001BEF1E7FFF7CFFFF9E703689868704728
:100B700008B584461846022913D901BEDCF81030A6
:100B8000C3F380230BB102B901BE89B9DCF80C10A4
:100B90006FF30F0192B20A43CCF80C2002F084FDEF
:100BA00008BD0029EAD1DCF81030C3F38003E9E77F
:100BB000DCF80C1089B241EA0242EDE7F8B50123F6
:100BC000037403685A6912F0020F6FD005460C4691
:100BD0005A6912F4007F6BD05A6912F4003F69D051
:100BE000032905D911F5702F03D36FF4702400E0A9
:100BF000032402229A619B692B68DF68BFB202F06E
:100C000047FD06462868426892B24FF6FF7103E03E
:100C100061B1426892B201397B1E9BB29342F7D018
:100C2000BA42F5D07B1C9BB29342F1D039B102EBB2
:100C3000040C1FFA8CFC13464FF6FF7108E0304697
:100C400002F056FD1C482BE071B143689BB201399C
:100C50009C45F9D00CF10107BFB29F42F4D00CF1D2
:100C60000207BFB29F42EFD09A421AD89B1AE41AE9
:100C700022444368240C04EB1344A4B2002392B230
:100C80001946FFF775FF0023224601212868FFF768
:100C90006FFF304602F02CFD2B6802221A62002002
:100CA000F8BD9B1A03F57F43FF33E0E70248F7E7FF
:100CB0000148F5E70048F3E70209020408B50346D6
:100CC00098B11A680721916192691A7C12B11A6869
:100CD000002111629A6832B1597C11F0010F02D0E3
:100CE0000021D8689047002008BD01BEE9E7000058
:100CF00038B5164B1C6834B35868042903D008294A
:100D000018D0002038BD616801384FF47A72002392
:100D1000A1FB000102F03CF905460122002120461A
:100D2000FFF710FF29462046FFF748FF0028E9D0CB
:100D300001BEE7E7002211462046FFF703FF00202F
:100D4000024B1860DEE70020DCE700BFC80B002084
:100D500008B5002000F000FD08BD000010B502F04D
:100D600097FC041E18BF01240F4B1B781BB12046B3
:100D700002F0BEFC10BD0C4B01221A700B4B00227E
:100D80001A605A600A4800F0DFFB00B901BE09484A
:100D900000F0DAFB00B901BE074800F0D5FB0028DF
:100DA000E5D101BEE3E700BFC40B0020C80B002063
:100DB00040000020080000202400002070B50446F8
:100DC0000E461546FFF7CAFF064B1C605E604FF0EB
:100DD000E022136923F0010313612046FFF7C5FEEB
:100DE000286070BDC80B00202DE9704305460C46F5
:100DF0001646FFF7BAFE4FF0E022136943F00103F5
:100E000013616A68236883421CD9C01AA0F5702058
:100E1000013800238046994658EA4F19B8EB000183
:100E20000C4669F1000554EA8F050019804645F12A
:100E3000000958EACF094046494602F0A9F8306057
:100E4000BDE87083C01AE4E770B582B00446154669
:100E50001E4613B1114B1B88F3B944B100232B601C
:100E60000193012905D80026304602B070BD01BEAD
:100E7000F4E701AA2046FFF7A1FF46B1FFF768FF9C
:100E800006462A4601A92046FFF7AEFFECE7002000
:100E900000F014FC0646F4E7014EE5E7D00B002015
:100EA00002120204014B1860704700BFDC0B0020E7
:100EB00010B4072900D901BE1F2A00D901BE00F1D4
:100EC0003D4303F5FE03DB0903F185631B01234C5E
:100ED000A04211D08034A04229D08034A04228D032
:100EE0001F4CA04227D08034A04227D08034A0429B
:100EF0000DD14FF4802300E00023C01A00F13B40E5
:100F000000F53900174C04EBD01003EB0013032954
:100F100017D81868C9001F248C4020EA040002F08A
:100F20001F028A4002431A605DF8044B7047002399
:100F3000E3E70023E1E74FF48023DEE74FF480236B
:100F4000DBE704395868C9001F248C4020EA0400FC
:100F500002F01F028A4002435A60E5E7000047445E
:100F600000004B4400644404C369002B07DAB1F568
:100F7000803F00D301BE89B2416000207047014824
:100F8000704700BF01008A000368002B08DAC260C6
:100F9000B1F5803F00D301BE89B281600020704767
:100FA0000048704701008A001F2800D901BE431E77
:100FB0001E2B08D802090B4B53F8223000F00F000B
:100FC00003EB4010704710B9064B18687047202893
:100FD00006D1044B5B6800F00F0003EB4010704734
:100FE000002070474C0858601F284ED838B50D4671
:100FF00000294CD00A4601F01F030433BFF34F8F82
:101000002449C1F868222032203B002BF8DCBFF3D2
:101010004F8FBFF36F8F2C6814F01F0401D01E4850
:1010200038BDFFF7C1FF1D4B186004E06B6800225C
:1010300043F8242001342B68B4EB531FF6D36A68BD
:1010400002F01F030433BFF34F8F1249C1F8682227
:101050002032203B002BF8DCBFF34F8FBFF36F8FA4
:101060000E4C00212068FFF77FFF2A4600212068F0
:10107000FFF78AFF08B10A48D2E700212068FFF78E
:1010800073FF0028CCD00648CAE7034870470248DF
:10109000C6E700BF00ED00E003018A00E00B00207E
:1010A00001018A0010B50C4612B151B9084810BDB3
:1010B00009B10748FBE7FFF777FF064B18602046AA
:1010C000F5E705490C604A60FFF78EFFEFE700BFC8
:1010D00003018A00E00B002080F10F242DE9F84382
:1010E000424B1B68002B75D00D4620F08051DB6809
:1010F00033F0805C71D062460CF01F030433BFF301
:101100004F8F3B4CC4F85C222032203B002BF8DC94
:10111000BFF34F8FBFF36F8FDCF800308B425FD986
:101120004C0900F01F0301269E4010F0805F3ED066
:10113000DCF80870002F56D0002D3DD04FF000088D
:101140002A4B1B681B68002B3DDABC4607F01F00CA
:101150000430BFF34F8F3A4603462549C1F85C225D
:101160002032203B002BF8DCBFF34F8FBFF36F8F93
:1011700057F8243013EA060922D1334347F82430C4
:10118000BFF34F8F1A4BC3F868C20CF1200C203804
:101190000028F7DCBFF34F8FBFF36F8F0021134B95
:1011A0001868FFF7E1FE8DB14846BDE8F883DCF82A
:1011B000047027F08057BDE702F06AFA8046BFE767
:1011C000DFF83090EAE7DFF83090ECE7404602F0D5
:1011D0008FFAE9E7DFF81C90E6E7DFF81890E3E71D
:1011E000DFF81890E0E7DFF81890DDE7E00B00206B
:1011F00000ED00E0020188000301880004018A007C
:1012000003018A002DE9F041404B1B68002B74D08C
:101210000D4620F08051DB6833F0805C6FD0624671
:101220000CF01F030433BFF34F8F394CC4F85C221A
:101230002032203B002BF8DCBFF34F8FBFF36F8FC2
:10124000DCF800308B425CD94C0900F01F0301260A
:101250009E4010F0805F3FD0DCF80870002F52D025
:10126000002D3ED04FF00008284B1B681B68002B58
:101270003DDABC4607F01F000430BFF34F8F3A46FB
:1012800003462349C1F85C222032203B002BF8DCC6
:10129000BFF34F8FBFF36F8F57F82430334224D002
:1012A00023EA060347F82430BFF34F8F184BC3F8E7
:1012B00068C20CF1200C20380028F7DCBFF34F8FF8
:1012C000BFF36F8F00240021104B1868FFF74CFE0E
:1012D0007DB12046BDE8F081DCF8047027F080572E
:1012E000BCE702F0D5F98046BEE70A4CEBE70A4CB2
:1012F000EEE7404602F0FCF9EBE7064CE9E7054C67
:10130000E7E7064CE5E7064CE3E700BFE00B00200B
:1013100000ED00E0020188000301880004018A005A
:1013200003018A00024600287BD000297BD00B7D78
:1013300013B10B8803B901BE4B7D13B14B8803B9C0
:1013400001BE8B791F2B00D901BE0B79032B00D96D
:1013500001BE4B79032B00D901BECB79032B00D9F9
:1013600001BE48880B8843EA0043D3608B791B0693
:1013700003F0F853C879000400F480300343087D7B
:10138000800000F004000343487D800200F4806088
:101390000343C87D002840D04FF4006003434879E0
:1013A000000200F440700343887D002837D00820F5
:1013B0000343087900F003000343136110698B892C
:1013C0001B0103F03003034313611069CB891B0336
:1013D00003F440530343136148890B8943EA0043F4
:1013E000D36210690B7C9B0103F04003034313613C
:1013F00010698B7C9B0303F48043034313611069E2
:101400004B7CDB01DBB2034313611069CB7CDB0354
:101410009BB203431361002070470020BEE7002009
:10142000C6E7024870470148704700BF0100D60078
:10143000024B984201D8024B1860704700E1F50555
:10144000E80B0020014B1860704700BFE40B002040
:10145000002808DB4901C9B200F1604000F5614095
:1014600080F80013704700F00F004901C9B2014B2A
:101470001954704714ED00E0084B9A68084B9A42E3
:101480000AD139B100F11003054A52F8230042F89D
:101490002310704701BEF5E70020704700ED00E023
:1014A000002C0000C8B138B50D4604464368072B30
:1014B00000D901BE6168B4F90000FFF7C9FF084B0D
:1014C0009A68084B9A4201D0002038BD2946B4F9E9
:1014D0000000FFF7D1FF0020F7E70348704700BF87
:1014E00000ED00E0002C00000100560008B510B12E
:1014F00000F0C2F908BD01BEFAE70000014B186018
:10150000704700BFF00B002010B50D48FFF7EEFF4D
:1015100004460C48FFF7EAFF44EA002040F20223A9
:10152000984206D040F20553984204D028B90620CC
:1015300002E0052000E0012010BD0020FCE700BF14
:10154000001041420030414200283DD00246C368AD
:10155000002B3BD00368002B3AD090F804C01E4B00
:1015600053F82C1041B310B40C4600E019464B69F7
:101570003BB1914205D0187E117E8842F6D81C46B8
:10158000F4E7914226D023694BB16369536114613A
:1015900003B11A61626101205DF8044B7047117E4E
:1015A000237E9942F1D254610023136122610A4BD8
:1015B00043F82C200120EFE7074B43F82C000023D1
:1015C000436103610120704700207047002070478D
:1015D000002070470020DFE7140C002070B582B0B7
:1015E00005460E46072800D901BE731EDBB2012B4B
:1015F00008D9042E13D0082E16D001BE2B4B53F859
:10160000254002E0294B53F82540012E0AD0022E36
:1016100036D025466469002CFBD1002037E0234BEF
:1016200053F82540002004E0204B53F82540ECE718
:1016300064699CB11E4B98420ED0A3681E42F7D13C
:10164000E3681A6800925B68019323683146684634
:101650009847184B1C60EBE7012EEED1012E01D00C
:1016600002B070BD124B984204D0134B002243F8D5
:101670002520F5E70F4B1A680F4B43F82520EFE7BD
:101680000C4B1D68002DC8D02D69C6E72D69002DB3
:10169000E6D0AB681E42F9D1EB681A6800925B682D
:1016A00001932B68314668469847EFE7140C0020F9
:1016B000FF004200EC0B0020F40B002070B5044644
:1016C000012800D901BE1C4B1B6853B30121002027
:1016D000FFF784FF064640BB01F0DAFF0546164BD4
:1016E0001B681BB104210020FFF778FF134A136920
:1016F00023F004031361BFF34F8F012C13D030BFCD
:101700000E4A136923F004031361284601F0F0FF29
:10171000094B1B681BB108210020FFF75FFF304613
:1017200070BD0026D8E720BFEAE702210020FFF7BE
:1017300055FF034EF3E700BF140C002000ED00E05E
:10174000FF004200034B186800F02000003818BF6B
:101750000120704700104042F8B50546FFF7D4FE5F
:101760000446012D00D901BE012C06D063B21BB185
:10177000631FDBB2012B00D901BEFFF7E3FF002896
:101780006ED0394B53F82430002B34D00121204641
:10179000FFF724FF0646002859D101F079FF0746DC
:1017A000314B53F824301BB104212046FFF716FFBC
:1017B000062C22D02D4A136943F004031361BFF3B2
:1017C0004F8F631F012B1ED9012D2DD030BF012B50
:1017D0002CD9264A136923F004031361384601F01B
:1017E00087FF214B53F82430002B3AD008212046A4
:1017F000FFF7F4FE35E00026CFE71D4A936843F07B
:101800003B039360D6E74FF0E021CA6842F47002D0
:10181000CA6001F55061D1F8882022F47002C1F845
:101820008820BFF34F8FCFE720BFD0E74FF0E022F3
:10183000D36823F47003D36002F55062D2F8883085
:1018400043F47003C2F88830BFF34F8FC1E7064BF3
:1018500053F824302BB102212046FFF7BFFE00E0F1
:10186000044E3046F8BD00BF140C002000ED00E02F
:1018700000104042FF004200034618B1186800F013
:101880000F00704701BEF9E71F2800D901BE431EB3
:101890001E2B08D802090B4B53F8223000F00F0022
:1018A00003EB4010704710B9064B186870472028AA
:1018B00006D1044B5B6800F00F0003EB401070474B
:1018C000002070474C085860A0F10803072B0DD882
:1018D000A1F10803072B0BD808280BD908290BD92D
:1018E000884201D0012070470020704700207047D7
:1018F00000207047002070470020704770B50E46EA
:10190000054608B1002415E001BEFBE7696C03EB56
:10191000830204EB4202143201EBC2014FF6FF7066
:101920008860696C01EBC20100224A600133012B1F
:10193000ECD90134092C0CD8A01D0022012105EBA3
:10194000800001F0DDFE03460028F2D1002EF0D029
:10195000EDE776BB70BD013001282CD86B6C00F12F
:10196000500203EB82034FF6FF725A606B6C23F058
:101970001F03BFF34F8F4FF4B0721149C1F86832A3
:101980002033203A002AF8DCBFF34F8FBFF36F8F6C
:101990006B6C13F01F0FDED003F5A67323F01F034B
:1019A000BFF34F8FC1F86832BFF34F8FBFF36F8F14
:1019B000D1E70020D0E74FF6FF732B64CAE700BFE2
:1019C00000ED00E010B50C4619B1FFF75DFF0146D0
:1019D00008E001BEF9E70D4808E023686268134398
:1019E0000FD070B10B68002BF5DA00202368626815
:1019F00053EA020CF1D0013B42F1FF3223606260F6
:101A0000EBE700B910BD0248FCE700BF01008A0007
:101A100002005E09002843D0F8B5064643680F2B44
:101A200000D901BED9081F4A52F8211003F007035C
:101A300001EB431041F20C028758BFB28258150CDB
:101A40006FF30F023A4380335B01CA50CB5877B92A
:101A500025BBF8BD0134092CFAD80123A3401F424D
:101A6000F8D0A01D06EB800001F05AFEF2E700243A
:101A7000F1E701340F2CECD80123A3401D42F8D02C
:101A800004F11E0306EB83035B685A689868002B19
:101A9000EFD0002AEDD003219047EAE70024E9E7E0
:101AA000704700BF4C085860002800F0E9802DE91D
:101AB000F04F87B0814683680F2B00D901BED9084B
:101AC000704A52F821A003F0070C0AEB4C1241F2C5
:101AD0000C03D3589BB202931F464FF0110BCDF865
:101AE0000CC0CDF81490B1E0002300937BE0FFB26E
:101AF000236A07EA030900250CE00135EDB2624BC9
:101B000004E000213046FFF72FFA0023022D72D89F
:101B1000002B70D03368002BEFDAA36800225A63E1
:101B2000A36823F01F03BFF34F8F40225749C1F82A
:101B300068322033203A002AF8DCBFF34F8FBFF31E
:101B40006F8FA36813F01F0FDBD03C3323F01F030C
:101B5000BFF34F8FC1F86832BFF34F8FBFF36F8F62
:101B6000CFE7012104F1280001F0C6FDE36A013B43
:101B7000E36252E0B8F1000F05D0B9F1000F02D0D6
:101B800049460098C0476469002C72D0002C53D09D
:101B90000198FFF779FE0646A36823F01F03BFF301
:101BA0004F8F40223949C1F85C322033203A002A55
:101BB000F8DCBFF34F8FBFF36F8FA36813F01F0FD5
:101BC0000AD03C3323F01F03BFF34F8FC1F85C32C0
:101BD000BFF34F8FBFF36F8FD4F80080B8F1000FC1
:101BE00082D063680093A3685F6B002F7FF47FAFA0
:101BF0004FF000094F46E761029B03EA0B0292B2E5
:101C0000039B80335B014AF803205AF8033017F036
:101C1000010F02D0E36A002BA3D117F0020FA9D065
:101C2000E36A002BA6D0022104F1280001F064FD34
:101C3000E36A013BE3629DE7049FDDF804B00BF12A
:101C40000102ABF110030C2B17D89346AFB10BF088
:101C50000F02012191400F42F1D027EA01070BF159
:101C60000102059B53F822400497CDF804B08B463F
:101C70008CE7049FDDF804B0E1E707B0BDE8F08F22
:101C8000704700BF4C08586001008A0000ED00E07A
:101C90002DE9F04F8BB0002800F054820C468146AD
:101CA0004268002A00F050820368002B00F04E8248
:101CB0005B687F2B00F24C82874B5B68C3F30803A1
:101CC00023B10B6849680B4340F044821068FFF76A
:101CD000DBFD0690D9F8043021461868FFF772FE44
:101CE0000290002840F03882D9F8003023F01F031A
:101CF000BFF34F8F784AC2F85C32BFF34F8FBFF308
:101D00006F8FD9F8003013F01F0F0AD00C3323F077
:101D10001F03BFF34F8FC2F85C32BFF34F8FBFF387
:101D20006F8FD9F80030D3F804A093F800B00021E9
:101D30000698FFF719F923681F4663680193D9F8DD
:101D400004305B680F2B00D901BED908634A52F8F2
:101D50002120039203F00703049302EB431241F2A4
:101D60000C03D35822686368B2F57A7F73F10003DD
:101D700008D2029E4FF0FF38594D0796CDF81490C7
:101D8000B946CFE001F084FC0546D9F8043021467D
:101D90001868FFF717FE8046002840F08C80D9F8BD
:101DA00004305B6C23F01F03BFF34F8F4FF4B0720E
:101DB0004949C1F85C322033203A002AF8DCBFF3ED
:101DC0004F8FBFF36F8FD9F804305B6C13F01F0F88
:101DD0000BD003F5A67323F01F03BFF34F8FC1F899
:101DE0005C32BFF34F8FBFF36F8F4FF0FF3101E0D5
:101DF00008F10108B8F1090F13D8D9F804305B6C69
:101E000008F11E0203EBC2039B6853450BD04FF64B
:101E1000FF729342ECD1B1F1FF3FE9D14FFA88F163
:101E2000E6E74FF0FF38B8F1FF3F3AD0D9F8043079
:101E30005B6C08F11E0203EBC2035A6801325A6060
:101E4000012303FA08F6D9F804305B6C23F01F0372
:101E5000BFF34F8F4FF4B0721F49C1F8683220337F
:101E6000203A002AF8DCBFF34F8FBFF36F8FD9F809
:101E700004305B6C13F01F0F0BD003F5A67323F037
:101E80001F03BFF34F8FC1F86832BFF34F8FBFF30B
:101E90006F8F00210698FFF767F8284601F028FCAD
:101EA0006AE78846D9F804305B6C1E3103EBC10346
:101EB000C3F808A0BAE7029E4FF0FF38EDE74FF0F5
:101EC000FF3649E04FF47A72002301F061F8C4E96B
:101ED00000237BE0034F08E000ED00E04C08586071
:101EE0000301880004005E099C4F304601F000FCAD
:101EF0002368626853EA020104D0013B42F1FF32D9
:101F00002360626023686268134306D1019BB3F1CA
:101F1000FF3F08BFB9F1FF3F6DD1002F6BD0904B51
:101F20009F4268D0B8F1000F50DB20686168B0F5BF
:101F30007A7F71F1000349D38A4B9D4246D0019BC1
:101F4000B3F1FF3F08BFB9F1FF3FB8D04FF47A7249
:101F5000002301F01DF8064601F09AFB0399049D49
:101F600001EB451341F208029B586FF30F036FEA30
:101F700093236FEA832301EB451241F2080153508A
:101F800001F0B6FB00250895099508A801F084FB2F
:101F9000059B5B6808F10600314603EB800001F009
:101FA00087FB029009A801F077FB20686168099B14
:101FB000089A9B1A4FF47A7202FB03F383428D4115
:101FC00080D2C21A61F100012260616001F060FB01
:101FD000064659465046FFF781F80546624B98423F
:101FE0003FF478AF013398423FF47EAF08B907461B
:101FF0007BE75B4F79E7079EDDF81490B8F1000F9F
:102000002ADA2FB1029A1AB1584B9A4200D01746D9
:1020100001F03EFB039B049A03EB421341F20C02D6
:102020009A5892B241F208015B587DB916420DD020
:10203000B6F5803F00D301BE1A0C1204B3B21A43A6
:10204000049B80335B010399CA50CB5801F050FBCD
:1020500038460BB0BDE8F08FD9F804302146186837
:10206000FFF7B0FC002868D1D9F804305B6C23F08E
:102070001F03BFF34F8F4FF4B0723D49C1F85C327C
:102080002033203A002AF8DCBFF34F8FBFF36F8F65
:10209000D9F804305B6C13F01F0F0BD003F5A67357
:1020A00023F01F03BFF34F8FC1F85C32BFF34F8F94
:1020B000BFF36F8FD9F804305A6C08F11E0302EB9E
:1020C000C302516801395160D9F80420526C02EB07
:1020D000C3035B6833B908F11E0802EBC8024FF670
:1020E000FF739360D9F804305B6C23F01F03BFF3D8
:1020F0004F8F4FF4B0721E49C1F868322033203A36
:10210000002AF8DCBFF34F8FBFF36F8FD9F804308C
:102110005B6C13F01F0F0BD003F5A67323F01F03A6
:10212000BFF34F8FC1F86832BFF34F8FBFF36F8F8C
:1021300000210698FEF718FF63E7002F7FF462AFD7
:1021400007465FE7064F83E7054F81E7044F7FE7C8
:10215000034F7DE7074F7BE7004F79E705005E09F6
:1021600001005E09030188000201880000000E06DC
:1021700000ED00E00C005E0900B583B038B10092BC
:1021800001936946FFF784FD03B05DF804FB01BECF
:10219000F5E700002DE9F04782B0064600284CD054
:1021A0004FF0FF324FF0FF33CDE900237368002B6F
:1021B00000F002813368002B00F000815B687F2B08
:1021C00000F2FE80804B5B68C3F308031BB1002262
:1021D0000023CDE9002373681868FFF755FB81469B
:1021E000736869461868FFF7EDFB8246002840F0E7
:1021F000E980336823F01F03BFF34F8F724AC2F8A0
:102200005C32BFF34F8FBFF36F8F336813F01F0F34
:102210000AD00C3323F01F03BFF34F8FC2F85C3298
:10222000BFF34F8FBFF36F8F33685F6893F8008001
:1022300000214846FEF798FE11E001BEB0E7634D6D
:10224000009B022B019B73F1000316D20022002396
:10225000CDE9002305B3009B019A13431CD04146EE
:102260003846FEF7CFFF0446594B984210D0013351
:102270009842E4D070B1574DE2E7012001F014FA22
:10228000009B013B019A42F1FF3200930192E1E78A
:102290005546DFE70546DDE7012001F005FA1CB1F0
:1022A000284602B0BDE8F087736869461868FFF7F2
:1022B00089FB054668B1F3E7D908474A52F821205F
:1022C00003F00703803302EB431340F2FF325A60FE
:1022D0000130012831D873685B6C23F01F03BFF312
:1022E0004F8F4FF4B0723849C1F85C322033203A36
:1022F000002AF8DCBFF34F8FBFF36F8F73685B6CFE
:1023000013F01F0F0BD003F5A67323F01F03BFF3C9
:102310004F8FC1F85C32BFF34F8FBFF36F8F73687D
:102320005A6C00F1080302EBC302536892689342AF
:10233000CED00F2BC0D901BEBEE773685B6C23F013
:102340001F03BFF34F8F4FF4B0721F49C1F85C32C7
:102350002033203A002AF8DCBFF34F8FBFF36F8F92
:1023600073685B6C13F01F0F0BD003F5A67323F09B
:102370001F03BFF34F8FC1F85C32BFF34F8FBFF322
:102380006F8F73685B6CD3F84421BA4204D000218C
:102390004846FEF7E9FD83E75B6C0F2B00D901BED1
:1023A000D9080D4A52F8212003F00703803302EBCD
:1023B0004313FF225A60EAE7064D71E7054D6FE7C8
:1023C000044D6DE7014D6BE700ED00E005005E098F
:1023D0000201880001005E094C0858602DE9F84FA1
:1023E000002800F0ED800F4693469A46804600296B
:1023F00000F0E8800C78A4F11103DBB20C2B00F2A2
:10240000E380CB68802B00F2E18089687868FFF771
:102410005BFA002800F0DC80C8F800402046FFF797
:1024200033FA06465C4655464FF0000912E04FF479
:102430007A7001F039F9B5F1FF3F08BFB4F1FF3F01
:1024400002D0013C45F1FF35B9F1000F0CD154EA3F
:10245000050309D03368002BE9DAD6F80C90002187
:102460003046FEF781FDE2E725430FD0C8F84490DF
:10247000C8F81480C8F810904FF6FF73C8F80C30F5
:102480007B68C8F80430BB68C8F8083008F110054C
:102490005A4653462846FFF76FFE0446002864D18B
:1024A000D8F8443023F01F03BFF34F8F4FF4B072BE
:1024B0004949C1F85C322033203A002AF8DCBFF3E6
:1024C0004F8FBFF36F8FD8F8443013F01F0F0BD02E
:1024D00003F5A67323F01F03BFF34F8FC1F85C32DF
:1024E000BFF34F8FBFF36F8FD8F84430596CD8F8D3
:1024F0000420914232D09E6CD8F80800864259D010
:10250000814259D0B24259D0DA64D8F84430D8F870
:1025100008201A65D8F84430443323F01F03BFF372
:102520004F8F2D4AC2F86832BFF34F8FBFF36F8FC2
:10253000D8F84430443313F01F0F0AD0103323F07F
:102540001F03BFF34F8FC2F86832BFF34F8FBFF343
:102550006F8F00214046FFF7D1F900E01F4C28465D
:10256000FFF718FE0CB900B10446D8F8443023F048
:102570001F03BFF34F8F4FF4B0721749C1F8683291
:102580002033203A002AF8DCBFF34F8FBFF36F8F60
:10259000D8F8443013F01F0F1BD003F5A67323F0B7
:1025A0001F03BFF34F8FC1F86832BFF34F8FBFF3E4
:1025B0006F8F0EE0094CD2E7084CD0E7074CCEE70E
:1025C000074C06E0064C04E0054C02E0044C00E039
:1025D000034C2046BDE8F88F00ED00E00D005E09D9
:1025E00001005E092DE9F0410D461446069A079B4D
:1025F0000646002838D0002D38D0802C64D83549C4
:102600004968C1F3080111B152EA030160D106F132
:1026100010084046FFF7B0FD0746002855D1736CFF
:1026200023F01F03BFF34F8F4FF4B0722949C1F855
:102630005C322033203A002AF8DCBFF34F8FBFF31F
:102640006F8F736C13F01F0F0BD003F5A67323F07D
:102650001F03BFF34F8FC1F85C32BFF34F8FBFF33F
:102660006F8F736CDB6807E001BEC4E701BEC4E78F
:102670005A68A2421DD09B68F3B123F01F00BFF33C
:102680004F8F144AC2F85C02BFF34F8FBFF36F8FB6
:1026900013F01F0FECD003F10C0222F01F02BFF366
:1026A0004F8F0C49C1F85C22BFF34F8FBFF36F8F80
:1026B000DEE72B606E6000E0074F4046FFF76AFDE3
:1026C0001FB910B1074600E0044F3846BDE8F0815D
:1026D000034FFAE700ED00E006005E0901005E0925
:1026E0000C005E092DE9F04182B00C461546064605
:1026F000002869D0002C69D00F2D72D83D4B5B6843
:10270000C3F30803002B6ED106F110074FF0FF3220
:102710004FF0FF333846FFF72FFD002864D1E369FF
:102720005B6C23F01F03BFF34F8F4FF4B070314940
:10273000C1F85C32203320380028F8DCBFF34F8F1B
:10274000BFF36F8FE3695B6C13F01F0F0BD003F5C2
:10275000A67323F01F03BFF34F8FC1F85C32BFF3A2
:102760004F8FBFF36F8F736C05F1180203EB820379
:10277000D3F804803846FFF70DFDA8BBB8F1000F71
:1027800035D004F10C07D8F80C204FF0FF304FF093
:10279000FF31CDE9000139463046FFF723FF68B924
:1027A000D8F818204FF0FF304FF0FF31CDE900018D
:1027B00004F114013046FFF715FF48B100236361AF
:1027C000A361E3607B600FE001BE93E701BE93E786
:1027D00005F11E0306EB83035C60C4F80080E6612C
:1027E00002E0054800E0054802B0BDE8F081044879
:1027F000FAE700BF00ED00E001005E090C005E0991
:1028000011005E0970B5002848D00C460546002925
:1028100047D00B68002B46D08B68002B45D0CB6887
:102820001F2B44D84A681F2A43D80BB9224E36E0E2
:102830002022002100F030FEE068286166686E60AA
:10284000A368EB6023682B60002305E0AA680121E0
:1028500099400A43AA6001339E42F7D8002305E05D
:102860006A69012199400A436A6101339842F7D8A5
:10287000616831B10A4605F1180000F041FF0646D3
:1028800068B9E1680A4605F11C0000F039FF064608
:1028900028B105F1180000F027FF00E0064E304691
:1028A00070BD054EFBE7044EF9E7034EF7E7024E15
:1028B000F5E7014EF3E700BF0000660949B10A6879
:1028C0004AB150B14A6852B142600B6803600020BF
:1028D00070470448704703487047024870470148F2
:1028E000704700BF00006609002854D0F0B589B0D9
:1028F0000C460746002951D04A698B689A424FD34B
:102900000023036043601D466269AA421ED9216903
:10291000EE00236A53F825209FED237B8DED007B8D
:1029200001EBC501E068FFF75DFE034670B9206961
:102930003044FFF72FFC20694FF0FF320023304472
:10294000FFF71AFC034608B90135DDE713B1184655
:1029500009B0F0BD2268A169E068FFF7C3FE034635
:102960000028F4D163680493A36805932369069350
:102970006369079304A9E069FFF744FF0346002851
:10298000E5D1E3690293A369039302A93846FFF7EF
:1029900095FF0346DBE7064B18467047044BD6E726
:1029A000034BD4E7AFF30080FFFFFFFF0000000000
:1029B0000000660960B308B5864659B362B3202AA1
:1029C00001D9164808BD4FF0000CC0F800C0C0F88F
:1029D00004C0C0F808C0C0F80CC0C0F810C0C0F8EF
:1029E00014C0016042608360029BC360634607E0DD
:1029F000DEF81010012098400143CEF8101001338A
:102A00009342F5D311460EF1140000F079FED9E798
:102A1000024870470148D5E70048D3E7000066093F
:102A20000ABEFEE770470000EFF3148010F0020FBB
:102A30000CBFEFF30880EFF30980014908477047A6
:102A40000D2C5860FEE7FEE7FEE701BEFEE770478B
:102A500010B4184B0022C3F88420BFF34F8FD3F873
:102A60008040C4F34E3000E01846C4F3C90243F678
:102A7000E07303EA401343EA82730E49C1F86C32F3
:102A80001346013A002BF2D1431E0028ECD1BFF3CC
:102A90004F8FBFF36F8FBFF34F8FBFF36F8F002246
:102AA000C1F85022BFF34F8FBFF36F8F5DF8044B17
:102AB000704700BF00ED00E008B5124A0AE0106858
:102AC000516850F8230041F82300013391688B428C
:102AD000F5D30C320C4B9A4201D20023F6E70B4A95
:102AE00008E01168002041F82300013351688B424F
:102AF000F7D30832064B9A4201D20023F6E7FDF7DE
:102B000039FF00BF30375860603758606037586011
:102B10006837586008B5384A136843F001031360FA
:102B200072B6002306E0354A52F82310344A42F8C0
:102B300023100133BD2BF6D9324B314A9A60BFF3D3
:102B40005F8FD3F8882042F47002C3F888202E4AA1
:102B500082F30A885A6942F400225A61BFF35F8FF8
:102B6000BFF36F8F5B6913F4003F13D1BFF34F8F37
:102B7000BFF36F8F234B0022C3F85022BFF34F8F58
:102B8000BFF36F8F5A6942F400325A61BFF34F8F1F
:102B9000BFF36F8F1B4B5B6913F4803F27D1194B39
:102BA0000022C3F88420BFF34F8FD3F880C0CCF34A
:102BB0004E3000E01846CCF3C90243F6E07303EA56
:102BC000401343EA82730F49C1F860321346013A59
:102BD000002BF2D1431E0028ECD1BFF34F8F4B697D
:102BE00043F480334B61BFF34F8FBFF36F8F00F01F
:102BF00019F8FFF761FF00BF007004E0000458609F
:102C0000002C000000ED00E000F0032008B500F00B
:102C100057FD08BD08B5FFF71BFF00F04DFD08BDCF
:102C20007047000008B50348FEF73CF9FFF7F8FFCE
:102C300008BD00BF540858600C4B18600C4B18605E
:102C400000F5742303F23F230A4AA2FB03239B0CE3
:102C5000094A136000F2E730084BA3FB00308009FB
:102C6000074B1860074B1960704700BF6C000020CD
:102C70006800002083DE1B4360000020D34D6210FB
:102C8000640000205C00002008B50548FEF7DAFB70
:102C90000448FEF7CDFB04490448FFF7CDFF08BD0B
:102CA0000080060100366E0100C2EB0B0084D717CE
:102CB000BFF35F8F074B5A6A22F480325A62D3F80F
:102CC000942022F00102C3F89420BFF34F8FBFF38A
:102CD0006F8F704700ED00E001F00303DB004FF061
:102CE000FF0C0CFA03FC07290ED810B54FEA910E21
:102CF0000EF10C0150F821409A40624002EA0C02A9
:102D0000624040F8212010BD70470000F8B505462C
:102D10000E46BFF35F8FFFF7CBFF002410E00121C9
:102D200019E09A7C920002F00C02295C2F48FFF710
:102D3000D3FF03E002432D48FFF7CEFF0134E4B296
:102D4000B44240D204EB8403980005EB83035A7B22
:102D5000002AE4D000211A7B0AB941F002015A6826
:102D600022F01F0293F80EC04FEACC0C0CF0180CA6
:102D700042EA0C02490001F006010A43D97B81F0C6
:102D800001010A43996821F01F0115F800C04FEABC
:102D90004C0707F00E07394341F00101144FC7F803
:102DA00098C0C7F89C20C7F8A0105A7C002AB8D158
:102DB000295C1B7C1A01D2B213F00F00BAD19B0020
:102DC00003F00C00B6E7BFF35F8F094B0522C3F891
:102DD00094205A6A42F480325A62BFF34F8FBFF395
:102DE0006F8FBFF35F8FBFF36F8FF8BD90ED00E083
:102DF00000ED00E008B503210148FFF787FF08BD9B
:102E00009008586008B50120FEF778FB08BD000067
:102E1000002807DB00F01F02400901239340024A0B
:102E200042F82030704700BF00E100E008B50248DA
:102E3000FEF7F0FD08BD00BF8C0C002008B502486D
:102E4000FEF732FE08BD00BF8C0C002000B595B027
:102E5000314B0FCB0DF1500C0CE90F003223ADF8C4
:102E6000383007230F932D490EA8FEF71BFB129B4A
:102E7000072B1CD803F007031933ADF830300723B4
:102E80000D9327490CA8FEF70DFB1198072812D8BF
:102E900000F007001930FFF7BBFF129807280ED883
:102EA00000F007001930FFF7B3FF002312E003F032
:102EB00007032F33E1E700F007002F30EBE700F0C6
:102EC00007002F30EFE7D91C14AA02EB830242F867
:102ED0002C1C0133022BF6D94FF47A72002310A96F
:102EE0001048FFF77BFA10B115B05DF804FB0090B5
:102EF0000D4B0193032302930A4A03920B4A049257
:102F000005930B4B06930B4B079309AB089369464C
:102F10000948FFF7E9FCE7E7CC0858602D2E586018
:102F20003D2E58608C0C0020A0F10F24740C002062
:102F3000540C0020340C0020480D002008B500225D
:102F400011460320FEF7AEF808BD000010B582B0B0
:102F5000FFF7F4FF08230093142303220A490B48C8
:102F6000FFF728FD044610B1204602B010BDFFF760
:102F70006DFF04460028F7D1FFF786FEFFF742FFFA
:102F8000FFF738FFF0E700BF00F20F24500D0020DC
:102F900053B94AB9002908BF00281CBF4FF0FF31C0
:102FA0004FF0FF3000F0B2B9ADF1080C6DE904CE7E
:102FB00000F006F8DDF804E0DDE9022304B0704714
:102FC0002DE9F04F8C46099E04460F46002B48D150
:102FD0008A4215465ED9B2FA82F33BB1C3F12002B0
:102FE0009F409D409C4020FA02F217434FEA154E45
:102FF0001FFA85FC220CB7FBFEF10EFB117701FBDB
:103000000CF042EA0742904207D9AA1801F1FF37B3
:1030100002D2904200F258813946121AA4B2B2FB91
:10302000FEF00EFB102200FB0CFC44EA0244A44517
:103030000BD92C1900F1FF322CBF01270027A44522
:1030400002D9002F00F04381104640EA0140A4EB72
:103050000C0400211EB1DC400023C6E90043BDE89A
:10306000F08F8B4206D90EB1C6E900010021084657
:10307000BDE8F08FB3FA83F1002951D16345C0F068
:103080001681824240F213810846002EE7D0C6E93D
:103090000047E4E7002A00F0AF80B2FA82F3002B89
:1030A00040F0C2808A1A4FEA154EAFB20121200CBF
:1030B000B2FBFEFC0EFB1C2240EA024207FB0CF0B6
:1030C00090420ED9AA180CF1FF382CBF4FF001091D
:1030D0004FF00009904203D9B9F1000F00F0F080E1
:1030E000C446121AA4B2B2FBFEF00EFB102200FB83
:1030F00007F744EA0244A7420ED92C1900F1FF3227
:103100002CBF4FF0010E4FF0000EA74203D9BEF1C5
:10311000000F00F0D2801046E41B40EA0C4099E713
:10312000C1F120058B400CFA01F400FA01F922FAF2
:1031300005F72CFA05FC8A401F4320FA05F3380CEA
:1031400023431FFA87FE1C0CBCFBF0F800FB18CCD5
:1031500044EA0C4408FB0EFCA4450ED93C1908F1C6
:10316000FF3A2CBF4FF0010B4FF0000BA44503D9E1
:10317000BBF1000F00F0B880D046A4EB0C041FFA9E
:1031800083FCB4FBF0F300FB134403FB0EFE4CEA9C
:103190000444A6450ED93C1903F1FF302CBF4FF073
:1031A000010C4FF0000CA64503D9BCF1000F00F054
:1031B0009F80034643EA0840A4EB0E04A0FB02EC08
:1031C00064457346E04602D307D1F14505D2BEEB14
:1031D00002036CEB070C0138E0465EB1B9EB030269
:1031E00064EB080404FA05F522FA01F3CC401D4310
:1031F000C6E90054002132E742082F464B08AC468E
:1032000042EAC172AE46C407110C92B241EA0341D0
:1032100042EA0142B1FBF5F1B3FBF5F01F23A2EB4B
:103220000C0241EA004142E79D40C3F1200299406F
:103230009C402CFA02FC4FEA154E20FA02F2AFB283
:10324000BCFBFEF80A430EFB18CC110C41EA0C4102
:1032500008FB07FC8C4550D9691808F1FF302CBFDA
:103260004FF001094FF000098C4502D9B9F1000F68
:1032700030D0A1EB0C01B1FBFEF808FB07FC0EFB04
:10328000181192B242EA0142624534D2AA1808F1FA
:10329000FF312CBF4FF001094FF000096245BED24B
:1032A000B9F1000FBBD1A8F102012A44B7E7841A93
:1032B0006CEB030201201746E7E62C4402382BE7AB
:1032C000ACF1020C2A440CE702392A44A5E62C444E
:1032D0000238BAE6A5EB0C0CA8F102006144B1FB80
:1032E000FEF808FB07FCCAE7A8F102083C4444E7E3
:1032F000023B3C445EE7414691E7A1EB0C014046AE
:10330000B1FBFEF808FB07FCB9E700BF704700BF40
:1033100008B5064B044613B10021AFF30080044BFF
:103320001B6803B19847204600F0AEF9000000008A
:10333000A80E0020024B0146186800F02DB800BF0F
:1033400070000020024B0146186800F053B900BF1E
:103350007000002070B50F4E0C460546316811B95B
:1033600000F000F930602146284600F0FBF8431CCD
:1033700003D14FF0FF34204670BDC41C24F0030479
:10338000A042F8D0211A284600F0ECF80130F2D122
:10339000EFE700BF680D00202DE9F843CD1C06467D
:1033A00025F0030508350C2D38BF0C25002D01DB59
:1033B000A94204D90C2333600020BDE8F883DFF86C
:1033C000D48000F085F9D8F800301C4644BB29466B
:1033D0003046FFF7BFFF431C044658D1D8F80040E1
:1033E0002746002F43D1002C4BD023683946304666
:1033F00004EB030900F0B6F8814542D1216830465C
:103400006D1A2946FFF7A6FF01303AD023682B44F6
:103410002360D8F800305A6862BBC8F800700FE02B
:103420002268521B20D40B2A17D96119A3422560A8
:1034300018BF5960636808BFC8F8001062514B603C
:10344000304600F065F904F10B00231D20F0070061
:10345000C21A1CBF1B1AA350AFE76268A3420CBF7D
:10346000C8F800205A60EBE723466468AEE73C46A4
:103470007F68B6E71A465B68A342FBD1002353601E
:10348000DEE70C233046336000F042F994E7056034
:10349000D6E700BF6C0D002002440346934200D1E2
:1034A000704703F8011BF9E72D4B1B68834270B589
:1034B000044653D0C3691BB3DB6863B10025E369DD
:1034C000DB685959B1B90435802DF8D1E36920463C
:1034D000D96800F08FF8E369196811B1204600F04F
:1034E00089F8E3699D685DB1294620462D6800F0A2
:1034F00081F8F8E70E68204600F07CF83146E1E7F5
:10350000616911B1204600F075F8E16911B12046FA
:1035100000F070F8216B11B1204600F06BF8616B80
:1035200011B1204600F066F8A16B11B1204600F001
:1035300061F8A16C11B1204600F05CF8616C11B12A
:10354000204600F057F8E16A11B1204600F052F829
:10355000236A1BB12046BDE87040184770BD00BF0C
:103560007000002038B50023054D044608462B6046
:1035700000F0CAF8431C02D12B6803B1236038BDA8
:10358000AC0E0020014B1868704700BF700000208F
:1035900070B50D4B00260D4D5B1B9C10A64209D14A
:1035A0000B4DFDF72FF90B4B00265B1B9C10A64221
:1035B00005D170BD55F8043B01369847EEE755F844
:1035C000043B01369847F2E7C0000020C00000200D
:1035D000C0000020C40000200A44431E914200D1D4
:1035E000704710B511F8014B914203F8014FF9D122
:1035F00010BD000038B50546002941D051F8043C03
:103600000C1F002BB8BFE41800F062F81D4A1368C5
:1036100033B9636014602846BDE8384000F078B8DC
:10362000A34208D9206821188B4201BF19685B6842
:1036300009182160EDE71A465B680BB1A342FAD97D
:1036400011685018A0420BD1206801445018116035
:103650008342E0D118685B68084453601060DAE781
:1036600002D90C232B60D6E7206821188B4202BFB9
:1036700019685B680918636008BF21605460CAE775
:1036800038BD00BF6C0D0020FEE700BF0000000049
:103690005FF800F06B1600005FF800F0612A000090
:1036A0005FF800F0450D00005FF800F0B116000073
:1036B0005FF800F0352900005FF800F0A527000052
:1036C0005FF800F0C91600005FF800F01D28000048
:1036D0005FF800F0E52700005FF800F045120000F9
:1036E0005FF800F0052800005FF800F0F529000001
:1036F0005FF800F0731600005FF800F00D2A00007C
:103700005FF800F00D2900005FF800F0A927000025
:103710005FF800F0ED2700005FF800F0DD0C00001E
:083720005FF800F0A129000090
:0837280044D2FF7F0100000004
:10373000306258600000002032000000F8625860DB
:1037400000000426060000007037586000000000EA
:10375000B00A00003062586000000026000000003F
:08376000600100205403000089
:103770000000000000000000000000000000000049
:103780002DE9F04782B006460C4601F026FB804644
:10379000574B9E4212D0022C1ED0042C1ED0012C5E
:1037A0001ED1544F524B9E421CD0022C37D0042CB9
:1037B00038D0012C39D14FF0000A17E0022C05D087
:1037C000042C05D0012C05D14B4FEBE74B4FE9E71B
:1037D0004B4FE7E74B4FE5E74B4FE3E74A4FE1E756
:1037E0004A4FDFE7042C17D04FF0000A0023009364
:1037F00001230E225146384600F08EF83C4B9E4283
:1038000016D0DFF80C910025009501230E222946E1
:10381000484600F081F839E04FF0070AE6E74FF03C
:10382000000AE3E74FF0010AE0E74FF0030ADDE7A3
:10383000DFF8E090E7E703F580330122DA602DE05E
:10384000042C11D00023012000FA03F3FB6001F0E7
:10385000CBFA274B9E420FD0022C2CD0042C2CD01C
:10386000012C2CD100230AE00723ECE70023EAE730
:103870000123E8E70323E6E7042C1AD00023012004
:1038800000FA03F3FB6001F0AFFA0135032D18DCF9
:10389000174B9E42CFD01E4B0122DA60144B9E4242
:1038A000CED0022CE2D0042CE2D0012CE2D10023B5
:1038B000C9E70723E3E70023E1E70123DFE7032369
:1038C000DDE70823009301230E225146384600F01D
:1038D00023F81B23009301230E220021484600F009
:1038E0001BF8404601F07DFA02B0BDE8F08700BF4A
:1038F00000004644800A81428002814200018142E8
:10390000000381428003814200008142000681421F
:1039100000004B4400004744F8B507460D461446E6
:103920001E469DF81820072900D901BE0F2C28D962
:10393000802C28D001BE012E00D901BE1F2A00D93B
:1039400001BE2946384602F06BFC3B680122AA40C2
:1039500023EA020306F00106AE401E433E60796C86
:10396000AD000F23AB4021EA03013A6F22EA0303C3
:10397000802C0BD004F00F04AC400C437C643B67FC
:10398000F8BD012CD6D0092CD5D1D3E70822AA4006
:103990000A437A64C4F30314AC401C433C67EFE76A
:1039A000B0F1FF3F22D008B338B50446002554EAF1
:1039B0004F15211A0A4665F1000352EA8F03801859
:1039C000044643F1000554EACF054FF47A72002310
:1039D0002046294602F01CFC6FF47A73A34240F2A1
:1039E000E733AB4101D26FF0010038BD70470000F2
:1039F00098B110B504460846FFF7D2FF0146237977
:103A00002BB1206800F0F4FB28B1002010BD206825
:103A100000F047FBF8E70248F8E70248704700BFAC
:103A200000000E0605000E0688B108B503792BB11B
:103A3000006800F0D8F940B1002008BD00231A4604
:103A40001946006800F038F9F5E70248F5E7024842
:103A5000704700BF02000E0605000E0640B330B5E9
:103A600083B00C46054629B300230193EFF3058389
:103A70007BB1002301AA006800F0D0F9012811D120
:103A8000019B7BB14FF0E0234FF08052C3F8042D2F
:103A900008E01046FFF784FF02460023214628680D
:103AA00000F00AF910B9044803B030BD0020FBE76C
:103AB000024870470148F7E702000E0605000E06AF
:103AC00030B330B583B00C46054619B300230193DB
:103AD000EFF3058373B101AA006801F04EFD0128E0
:103AE00010D1019B73B14FF0E0234FF08052C3F827
:103AF000042D07E01046FFF753FF024621462868D1
:103B000000F041FA10B9044803B030BD0020FBE7D3
:103B1000024870470148F7E702000E0605000E064E
:103B200000F1080343604FF0FF328260C36003611D
:103B300000230360704700230361704743684B60B4
:103B40009A688A6051609960086103680133036074
:103B500070470369416882688A60416851605A68A9
:103B6000824206D0002202611A68013A1A6018687F
:103B7000704782685A60F5E710B5044601F070FAA4
:103B8000A26BE36B9A4204D0002401F077FA20463E
:103B900010BD0124F9E710B5044601F061FAA36BEA
:103BA00023B9012401F06AFA204610BD0024F9E788
:103BB00070B504461546866B026C5AB903681BB192
:103BC00000200136A66370BD806801F025FF002348
:103BD000A360F6E76DB9406802F00AFB6368226CE7
:103BE00013446360A268934219D323686360284634
:103BF000E7E7C06802F0FCFAE368226C51429B1AC6
:103C0000E3602268934202D2A3680B44E360022D72
:103C100001D00020D5E726B1013E0020D1E728469B
:103C2000CFE70020CDE70346026C6AB110B5084625
:103C3000D9681144D9609C68A14201D31968D96040
:103C4000D96802F0D5FA10BD704738B5054601F0C5
:103C500007FA95F8454064B201E0013C64B2002CDB
:103C60000ADD6B6A43B105F1240000F053FF002820
:103C7000F3D001F067F8F0E7FF2385F8453001F055
:103C8000FDF901F0EDF995F8444064B201E0013C22
:103C900064B2002C0ADD2B6943B105F1100000F07D
:103CA00039FF0028F3D001F04DF8F0E7FF2385F845
:103CB000443001F0E3F938BDF0B585B00F4601920C
:103CC0001D46044648B167B1022D11D001F06AF8D3
:103CD00008B9019B9BB9002644E001F00BFB01BE33
:103CE000F1E7236C002BEFD001F004FB01BEEBE702
:103CF000E36B012BEAD001F0FDFA01BEE6E701F02B
:103D0000F9FA01BEE7E72A4639462046FFF750FF99
:103D1000636A2BB968B901F0B1F9012005B0F0BDB3
:103D200004F1240000F0F6FE0028F4D001F08CF934
:103D3000F1E701F089F9EEE701F0A0F90020EDE7E5
:103D400002A801F005FE012619E0002384F84430A2
:103D500021E0002384F8453023E02046FFF775FF7B
:103D600000F0E6FC01F07CF9A26BE36B9A42CAD347
:103D7000022DC8D0019B002BDED0002EE0D001F038
:103D80007DF901F0BBFD01F06BF994F8440040B2FD
:103D9000B0F1FF3FD9D094F8450040B2B0F1FF3FF9
:103DA000D7D001F06BF901A902A800F091FF98B9F2
:103DB0002046FFF7E1FE0028CFD0019904F1100062
:103DC00001F0B0FD2046FFF740FF00F0B1FC0028F5
:103DD000C8D101F039F9C5E72046FFF736FF00F0FA
:103DE000A7FC00209AE738B5044630B1A56800F07A
:103DF000D3FF854205D0002038BD01F07BFA01BE1B
:103E0000F4E7E368013BE3600BB10120F4E71A46F5
:103E100019462046FFF750FF0120EDE72DE9F84352
:103E20000E4691461D460446A0B1BEB1022D1CD0DF
:103E300001F0FEF901F05EFA0746A26BE36B9A42CD
:103E40001AD3022D18D00024384601F05EFA20461D
:103E5000BDE8F88301F04EFA01BEE6E7236C002BC3
:103E6000E4D001F047FA01BEE0E7E36B012BDFD0BD
:103E700001F040FA01BEDBE794F845804FFA88F87C
:103E8000A36B2A4631462046FFF792FEB8F1FF3F6A
:103E90000FD1636A0BB90124D6E704F1240000F0C6
:103EA00039FEC8B1B9F1000F18D00124C9F800409B
:103EB000CAE701F031FD804512D2B8F17F0F07D07B
:103EC00008F101084FFA88F884F845800124BBE71F
:103ED00001F010FA01BEF3E70124B5E70124B3E7CE
:103EE0000124B1E7F8B50E460446C0B1236CD3B93E
:103EF0002368E3B101F09CF901F0FCF90546A36BDE
:103F0000E26B9A4233D994F845707FB20133A363D0
:103F1000B7F1FF3F1BD1636A83B9012428E001F0A8
:103F2000E9F901BEE2E701F0E5F901BEE0E7A368C7
:103F3000002BDFD001F0DEF901BEDBE704F1240045
:103F400000F0E8FDC8B1D6B10124346010E001F002
:103F5000E3FC874215D27F2F05D001377FB284F86A
:103F60004570012404E001F0C5F901BEF5E7002425
:103F7000284601F0CAF92046F8BD0124F8E70124DB
:103F8000F6E70124F4E7F0B585B00F460192044648
:103F900038B157B100F006FF08B9019B63B900269C
:103FA00045E001F0A7F901BEF3E7236C002BF1D047
:103FB00001F0A0F901BEEDE701F09CF901BEEEE7CA
:103FC00039462046FFF72FFE013DA563236923B93B
:103FD00001F054F8012005B0F0BD04F1100000F02C
:103FE00099FD0028F4D001F02FF8F1E701F046F830
:103FF0000020F0E702A801F0ABFC012621E000233D
:1040000084F8443029E0002384F845302BE0204632
:10401000FFF71BFE00F08CFB09E02046FFF715FEC2
:1040200000F086FB2046FFF7B6FD002837D101F0EF
:1040300017F8A56B002DC3D1019B002BD6D0002E05
:10404000D8D001F01BF801F059FC01F009F894F800
:1040500044305BB2B3F1FF3FD1D094F845305BB24E
:10406000B3F1FF3FCFD001F009F801A902A800F099
:104070002FFE0028D1D12046FFF78DFD0028C6D0A5
:10408000019904F1240001F04DFC2046FFF7DDFD0D
:1040900000F04EFB0028CAD100F0D6FFC7E7002091
:1040A00099E770B584B00191044648B1236C5BB9BF
:1040B00000F078FE08B9019B53B9002635464DE063
:1040C00001F018F901BEF1E701F014F901BEEFE7C4
:1040D00001F010F901BEF0E7013BA363236833B19F
:1040E000236943B900F0CAFF012004B070BD01F09C
:1040F00035FDA060F4E704F1100000F00BFD00288E
:10410000F0D000F0A1FFEDE700F0B8FF0020ECE7F1
:1041100002A801F01DFC01252AE0002384F84430A8
:1041200032E0002384F8453034E000F099FFA068C5
:1041300001F01AFC064600F0A1FF3BE02046FFF725
:1041400084FD00F0F5FA09E02046FFF77EFD00F05F
:10415000EFFA2046FFF71FFD00283AD100F080FF5C
:10416000A36B002BB8D1019B002BCDD0002DCFD05D
:1041700000F084FF01F0C2FB00F072FF94F84430BD
:104180005BB2B3F1FF3FC8D094F845305BB2B3F1F6
:10419000FF3FC6D000F072FF01A902A800F098FD11
:1041A0000028D1D12046FFF7F6FC0028C6D02368AE
:1041B000002BBAD0019904F1240001F0B3FB204692
:1041C000FFF743FD00F0B4FA0028C7D100F03CFF30
:1041D000C4E70EB9002088E700F042FF204601F056
:1041E00005F90146A06801F063FC00F047FFF1E724
:1041F00070B50D46044668B1A66800F0CDFD864254
:104200000CD029462046FFF74CFF58B1E368013334
:10421000E36007E001F06EF801BEEDE7E36801330B
:10422000E360012070BD10B5044630B100F018FF06
:10423000A46B00F023FF204610BD01F05BF801BE27
:10424000F4E770B504460D46164600F009FF94F8F1
:1042500044305BB2B3F1FF3F0DD094F845305BB210
:10426000B3F1FF3F0BD000F009FFA36B5BB1204619
:10427000FFF7EBFC70BD002384F84430EDE700232A
:1042800084F84530EFE73246294604F1240000F077
:104290001BFCECE70A4B1B6803B10123094A1268B7
:1042A000D06A50B9084A1268012A07D833B9074BB7
:1042B0001868074B1B68C01A70470020704700BF82
:1042C0008C090020940A0020080A002074090020AC
:1042D00090090020074B1B681B6823B9064B4FF061
:1042E000FF321A607047034B1B68DB681A68024B89
:1042F0001A607047DC0900207409002010B50446DC
:1043000000F0AEFE254A136801331360244B1B688E
:104310005BB1244B1B686BB9214B1B68DA6AE36AFB
:104320009A4207D81E4B1C6004E01D4B1C601368AA
:10433000012B2DD01C4A1368013313606364E36AB8
:104340001A4A1268934201D9184A1360184A03EBBB
:10435000830302EB83035B68A3609868E060211D20
:1043600041609960E36A03EB8301880002EB8101FD
:10437000616111580131115000F080FE094B1B683A
:104380002BB1074B1B68DA6AE36A9A4203D310BD6C
:1043900001F0FEF9CEE700F057FEF8E7940900209F
:1043A000940A002088090020780900208C09002048
:1043B000080A002070B504460D461E4B1E681E4BB1
:1043C00018680430FFF7C5FBB4F1FF3F0DD034444B
:1043D000194B1B685C60A6421DD9184B1868164B18
:1043E0001968043100F0C0FD70BD002DEFD0144AF3
:1043F0005168114B1868816018688C68C46018682F
:10440000043060601868043088601B685A61136863
:1044100001331360E8E70B4B1868074B1968043148
:1044200000F0A2FD084B1B68A342DDD9064B1C60BF
:10443000DAE700BF90090020940A0020D809002084
:1044400098090020DC090020740900202DE9F043C0
:1044500085B00746884614461E46900000F0AAFF25
:1044600018B38146BC2000F0A5FF0546B8B1BC22B8
:10447000002101F0D9FEC5F8309000230393029586
:104480000D9B01930C9B00933346224641463846D0
:1044900001F022F92846FFF731FF012007E04846E6
:1044A00000F098FF4FF0FF3001E04FF0FF3005B013
:1044B000BDE8F08310B588B000240594069407AADF
:1044C00006A905A801F072FD059B0293069B0193C6
:1044D00000942346079A1549154801F0CFF9154B6A
:1044E0001860B8B101F0D4FC012814D100F002FF2B
:1044F000114B1B686833114A1360114B4FF0FF32A8
:104500001A60104B01221A600F4B00221A6000F053
:1045100023FE03E00020B0F1FF3F03D00B4B1B68EC
:1045200008B010BD00F0E6FE01BEF7E728085860AD
:104530002511000070090020940A0020700000205E
:10454000740900208809002090090020480858605C
:1045500010B50446164B1B680344164A1268934272
:104560000BD8134B1B682344124A1268934208D09D
:104570000F4A13682344136010BD00F0BBFE01BE58
:10458000EFE70D4B1B6853B16CB100F069FD0B4AAE
:1045900013680133136000F071FD013CE8E700F09F
:1045A000A9FE01BEF0E700F0A5FE01BEEDE700BFE9
:1045B00090090020740900206C0900208409002063
:1045C000504B1B68002B40F0948070B54E4B1C681C
:1045D00001341C607CB94D4B1B681B6803BB4B4A04
:1045E00011684B4B1868106019604A4A1368013310
:1045F0001360FFF76FFE484B1B68A34214D90020DD
:10460000464B1B68DB6A03EB83039A00444B9B58C1
:10461000012B00D90120434B1B68002B6FD170BDCB
:1046200000F068FE01BEDAE7002037E03A4B4FF0B9
:10463000FF321A60E4E7384B1A60E1E7D96851604D
:1046400042E000219962116801391160DA6A364945
:1046500009688A4201D934490A60314902EB820271
:104660004FEA820C8C44DCF804209A609668DE6085
:1046700075609560DA6A02EB820C4FEA8C056E1861
:104680005E614D5901354FEA8C0C41F80C50DA6AE5
:10469000224B1B68DB6A9A4200D901201B4B1B6826
:1046A0001B68002BC2D0194B1B68DB68DB685A689B
:1046B0009442C0D35A699D68D968A9609D684D60CD
:1046C00051681D1DA942B9D00021596111680139F5
:1046D00011609A6A002AB9D0DE69196AB160DE6990
:1046E0004E60566803F118018E42AAD1196A5160D2
:1046F000A7E70E4A136801331360002070470120BA
:104700008DE700BF6C09002090090020DC09002023
:10471000D80900207C09002074090020940A002098
:10472000080A0020800900208C090020840900204C
:1047300010B5444B1B686BB100F092FC414B1A68FA
:10474000013A1A601B68002B76D13F4B1B685BB99E
:10475000002472E000F0CEFD01BEEDE7196A516061
:1047600015E0D968516021E00023384A1268002A18
:1047700047D0364BDB68DB689A6AD869196A816072
:10478000D8694860506803F118018842E6D00021DA
:1047900099621168013911605A699868D968816015
:1047A000986848605168181D8142DAD0002159612B
:1047B000116801391160DA6A254909688A4201D90C
:1047C00023490A60234902EB820201EB820252680C
:1047D0009A609468DC6060609060DA6A02EB820044
:1047E000840001EB80005861085901300851D96AF2
:1047F000194A1268D26A9142B7D9184A0121116048
:10480000B3E70BB1FFF766FD154B1C6844B9134BBA
:104810001C6894B100F018FC01240EE0013C07D0A4
:10482000FFF7CEFE0028F9D00C4B01221A60F5E705
:104830000B4B00221A60EAE7002400F01FFC204620
:1048400010BD00BF6C09002094090020C40900209D
:104850008C090020080A0020940A0020800900200A
:104860008409002010B560B10446094B1B685BB990
:1048700001F044F800212046FFF79CFDFFF758FFA8
:1048800008B900F0E1FB10BD00F034FD01BEEFE718
:104890006C09002008B503E0FFF7FCFC132808D8DA
:1048A00000F0C6FF0D4B1B68012BF5D900F0CCFBC7
:1048B000F2E701F023F80A4B1A680A4B1B689A4288
:1048C00008D3FFF7E7FC132801D901F087FBFFF7B6
:1048D0002FFFE5E700F00EFD01BEF2E7080A002019
:1048E00074090020900900202C4B1B681BB12C4B35
:1048F00001221A60704710B5294B00221A60294B1B
:104900001B681B6B1A68B2F1A53F03D15A68B2F15C
:10491000A53F08D0234B18681968343100F0B1FC6A
:10492000214B1C6809E09A68B2F1A53FF2D1DB681F
:10493000B3F1A53FEED1F3E7013C04EB8402930011
:104940001A4AD3582BB9002CF6D100F0D3FC01BE83
:10495000F2E7114604EB840293000B445A68526854
:104960005A6004EB8400830008330B449A420FD052
:1049700004EB84039A000D4B13445B68DA68094B1F
:104980001A60094A14601B686833094A136010BD35
:1049900082000B461344DA685A60E9E76C0900208C
:1049A00080090020940A00208C090020080A0020B9
:1049B0007000002038B5044600F052FBD4B1251D2C
:1049C0002846FFF7C6F8A36A1BB104F11800FFF7E9
:1049D000C0F829461F48FFF7B1F80023002B0CDD73
:1049E00000F04CFB1C4B1B689BB91C4B1B68A34283
:1049F00016D038BD194B1C68E1E7E21892F8B820D0
:104A0000012A01D00133E9E7E218002182F8B81049
:104A1000F8E700F025FBFFF75DFC00F02FFBE4E773
:104A20000D4B1B684BB10E4B1B6813B900F00CFB10
:104A3000DFE700F05FFC01BEF8E7064B1A68094BA0
:104A40001B689A4203D1054B00221A60D1E7FFF799
:104A50004BFFCEE79809002088090020940A002027
:104A60006C0900209409002070B50C4616460546D6
:104A7000E8B1134B1B68F3B1124B1A6844F00044C1
:104A800094616A681968CA6119689068086219684F
:104A9000183141601968183191601B689D622B685C
:104AA00001332B6001213046FFF784FC70BD00F01C
:104AB00021FC01BEDDE700F01DFC01BEDCE700BF0C
:104AC0006C090020940A002070B50E461446054675
:104AD000C8B16A680E4B1968CA61196890680862A3
:104AE0001968183141601968183191601B689D621E
:104AF0002B6801332B600CB14FF0FF362146304656
:104B0000FFF758FC70BD00F0F5FB01BEE1E700BF08
:104B1000940A002010B5C368DC68002C4AD0A36A50
:104B2000E169226A8A60E16951605A6804F11801FA
:104B30008A4243D00022A2621A68013A1A60294BC5
:104B40001B68002B40D16369A168E2688A60A16894
:104B500051605A68211D8A4233D0002262611A686E
:104B6000013A1A60E36A204A1268934201D91E4A48
:104B700013601E4A03EB830302EB83035B68A360AD
:104B80009868E06041609960E36A03EB8301880004
:104B900002EB81016161115801311150FFF79AFB5D
:104BA000E26A134B1B68DB6A9A4219D90120114B48
:104BB000186010BD00F09EFB01BEB0E7226A5A608B
:104BC000B8E7E2685A60C8E70B4B5A68E261906840
:104BD000206241609160A3621A6801321A60DFE7C7
:104BE0000020E6E76C0900208C090020080A00205C
:104BF000940A002080090020C409002038B5054629
:104C00000C462E4B1B68002B4AD044F000442C600D
:104C1000EC68002C48D02B696968AA688A606968CA
:104C200051605A68AA4243D000222A611A68013AA8
:104C30001A60FFF74FFB6369A168E2688A60A168A8
:104C400051605A68211D8A4235D0002262611A687B
:104C5000013A1A60E36A1A4A1268934201D9184A63
:104C60001360184A03EB830302EB83035B68A360C2
:104C70009868E06041609960E36A03EB8301880013
:104C800002EB81016161115801311150E26A0E4B52
:104C90001B68DB6A9A4202D90C4B01221A6038BDAC
:104CA00000F028FB01BEB0E700F024FB01BEB2E734
:104CB000AA685A60B8E7E2685A60C6E76C09002043
:104CC0008C090020080A0020940A00208009002096
:104CD000F8B50C460546A8B1C4B100F0C1F9174BB0
:104CE00019686B68C81A2268B2F1FF3F20D0144ED1
:104CF00036682F68B7420DD08B420BD80023236053
:104D0000012416E000F0F6FA01BEE5E700F0F2FA41
:104D100001BEE2E7824203D800232360012408E0B9
:104D20005B1A13442360284600F012FE002400E0C2
:104D3000002400F0A3F92046F8BD00BF9009002030
:104D40007C090020014B01221A6070478009002075
:104D50000C4B1B6873B90C4B1B686BB90B4B1B6876
:104D600063B90B4B1A680B4B1B68013B9A4207D087
:104D700001207047002070470020704700207047D6
:104D800002207047C4090020800900208409002007
:104D90009809002094090020014B1868704700BF53
:104DA000940A0020054B1B6833B1054B1B680BB1FF
:104DB00000207047022070470120704788090020BA
:104DC0006C090020000000000230800803D0013090
:104DD0000238FCD100BF00BF7047EFF3108072B6FD
:104DE000704780F31088704738B504460B4B1B683A
:104DF0004FF0FF35B5FBF3F506E0084B186805FBEF
:104E000000F0FFF7E1FF641BAC42F6D8034B1868D3
:104E100004FB00F0FFF7D8FF38BD00BF640000209E
:104E200008B5034B1B6803FB00F0FFF7CDFF08BD7F
:104E300060000020FEE7000008B50268224B1A60FF
:104E400042685A6082689A60C268DA6002691A61D0
:104E500042695A6182699A61C269DA611B4A916A40
:104E60001962D16A5962516A9962516BD962926B27
:104E70001A63F1EE103A13F0900F22D0026A124B2F
:104E80005A63426A9A63826ADA63C26A1A64026B7C
:104E90005A64426B9A64826BDA64C26B1A65026C64
:104EA0005A65426C9A65826CDA65C26C1A66026D4C
:104EB0005A66426D9A66826DDA66C26D1A67026E34
:104EC0005A67FFF7B7FF08BDC800002000ED00E0FB
:104ED000F8B50D46044660B1B5F1807F0DD204F1FE
:104EE0000C0600F00BFD206923682B43236000278C
:104EF00012E000F0FFF901BEEEE700F0FBF901BEA1
:104F0000EDE7216832EA010105D111E0216841F0A5
:104F10000071FFF773FE2846B0420ED04568036863
:104F200023F07F4213F0806FEBD121681142F2D061
:104F300013F0807FEAD01743E8E7236823EA0703EA
:104F40002360FFF7F5FB2068F8BD08B5FFF7C0FF49
:104F500008BD000008B513460A460146014800F0A6
:104F6000C5FF08BDDB17000030B40D68B5F1FF3F89
:104F700011D000F108031C465B681A68AA42FAD9EE
:104F800063684B6099608C606160086103680133FD
:104F9000036030BC70470469F2E74FF0E023D3F8B8
:104FA000882D42F47002C3F8882DD3F8342F42F0D4
:104FB0004042C3F8342F704700B583B000230193FB
:104FC000084B1B68B3F1FF3F07D100F093F9019B39
:104FD000002BFCD003B05DF804FB00F08BF901BEA0
:104FE000F3E700BF0400002010B500F083F9044689
:104FF000FFF7E6FA28B14FF0E0234FF08052C3F8F4
:10500000042D204600F081F910BD00004FF0E02291
:10501000002313619361084B1B680849A1FB03132C
:105020009B09013B536107231361054B9B68054AAC
:10503000DA63BFF34F8F70476C000020D34D6210CE
:1050400000ED00E0791800004FF0E0234FF08052AF
:10505000C3F8042DBFF34F8FBFF36F8F704700006D
:1050600008B500F047F9044A136801331360BFF331
:105070004F8FBFF36F8F08BD0400002008B5094BA8
:105080001B6833B1074B1A68013A1A601B6823B1D9
:1050900008BD00F02FF901BEF4E7002000F035F95B
:1050A000F6E700BF0400002008B5836913F8023C4E
:1050B000662B03D000F01EF901BE08BDFFF76DFF9F
:1050C00000F0E6F8F9E7000010B44FF0807440F803
:1050D000044C40F8082C1F4A40F80C2C4FF01232B8
:1050E00040F8102C4FF0033240F8142C4FF00232ED
:1050F00040F8182C4FF0013240F81C2C40F8203CAE
:105100004FF0113340F8243C4FF0103340F8283C66
:105110004FF0093340F82C3C4FF0083340F8303C56
:105120004FF0073340F8343C4FF0063340F8383C3A
:105130004FF0053340F83C3C4FF0043340F8403C1E
:105140006FF0430340F8443C40F8481C48385DF891
:10515000044B70474918000010B584B00023039336
:105160004FF0E023D3F81C2D02924FF07F42C3F89A
:105170001C2DD3F81C3D1B0E8DF807309DF8073011
:1051800003F02003274A137043B19DF8073013F052
:10519000200F10D100F0AEF801BE0CE000F0AAF82C
:1051A00001BEF2E7039B013303939DF807305B00D8
:1051B000DBB28DF807309DF8073013F0800FF1D186
:1051C000039B082B2AD0039BC3F10703164A1360E5
:1051D000154A13681B02136003F4E0631360029A1C
:1051E0004FF0E023C3F81C2DD3F8202D42F47F02AA
:1051F000C3F8202DD3F8202D42F07F42C3F8202D94
:10520000FFF704FF0024094B1C6000F061F8FFF772
:105210006BFBFFF7D1FE204604B010BD024B00220D
:105220001A60D5E7180900201409002004000020A6
:1052300008B5EFF305830F2B05D90C4A9A5C0C4B8C
:105240001B789A420AD34FF0E023D3F80C3D03F4C5
:10525000E063084A1268934204D808BD00F04AF897
:1052600001BEF0E700F046F801BEF6E7F0E300E02B
:10527000180900201409002008B500F03BF801BE11
:10528000FEE708B500F036F801BEFEE700000000BA
:105290000B4A1168086806C881F30B88022181F364
:1052A0001488203080F30988BFF36F8F4FF000001F
:1052B00080F31188104700BFAFF30080AFF3008088
:1052C000940A002000000000000000000000000020
:1052D00007480068006880F3088862B661B6BFF3CB
:1052E0004F8FBFF36F8F66DF00BF00BFAFF300804B
:1052F00008ED00E0EFF311804FF0200181F31188F9
:10530000BFF34F8FBFF36F8F704780F31188BFF3E8
:105310004F8FBFF36F8F7047000000000000000048
:10532000EFF309801EF0100F08BF20ED108AEFF395
:105330000B82734620E9FC0F114A116808604FF098
:10534000200080F31188BFF34F8FBFF36F8FFFF7FB
:10535000CBFA4FF0000080F31188094A1168086801
:10536000B0E8FC0F13F0100F08BFB0EC108A82F306
:105370000B8880F309881847AFF30080AFF30080F3
:10538000940A00200000000000000000000000005F
:105390001EF0040F0CBFEFF30880EFF309800449FF
:1053A000084700BFAFF30080AFF30080AFF3008089
:1053B0003919000010B5044600F0A0FA204600F0AC
:1053C0001FFF0446FFF7B4F90CB1204610BDFFF7EC
:1053D00053FFFAE748B110B5044600F08FFA2046B3
:1053E00000F012FFFFF7A4F910BD70470346406AB2
:1053F00018B11B6B1868C0F10700704738B540B191
:105400000D460446C36B43B9FFF774FF01BE00208D
:1054100038BDFFF76FFF01BEF6E7026C0021A2FB6B
:105420000323E3B90029EFD1FFF71AFE2368E26BEB
:10543000216C01FB0230A0600020A0636360013A90
:1054400002FB0133E360FF2384F8443084F84530E5
:1054500085B923692BB9FFF711FE0120D8E7012197
:10546000E0E704F11000FFF755FB0028F3D0FFF749
:10547000EBFDF0E704F11000FEF752FB04F124000D
:10548000FEF74EFBE7E738B51D46049C0B4649B9CD
:105490002460E063236401212046FFF7AFFF84F816
:1054A0004C5038BD2260F4E7F0B585B005460F4694
:1054B00016461C46BBB1E5B1DCB1C6B1CFB1502335
:1054C0000393039B502B19D1039B012384F846308F
:1054D00000949DF82830324639462846FFF7D3FF1E
:1054E000204605B0F0BDFFF705FF01BEE3E7002F42
:1054F000E5D0FFF7FFFE01BE0020F2E7FFF7FAFE5E
:1055000001BEE1E7F0B583B0F8B10C461746054699
:105510000023A4FB0012B2B9BBB904FB05F010F1E3
:10552000510F12D85030FFF745FF064688B10023CF
:1055300080F8463000903B4600F150022146284654
:10554000FFF7A1FF05E00123E6E7FFF7D3FE01BE69
:105550000026304603B0F0BD10B548B10C46884275
:1055600006D302220021FFF7CDFF28B1846303E0B8
:10557000FFF7C0FE01BE002010BD2DE9F8430C4628
:105580001746804678B194B1FFF752FEFFF7B2FE9E
:105590000546D8F8386096B900242846FFF7B5FECE
:1055A0002046BDE8F883FFF7A5FE01BEEBE7D8F87B
:1055B0004030002BE8D0FFF79DFE01BEE4E798F8ED
:1055C00044904FFA89F921464046FEF72CFB013EF4
:1055D000C8F83860B9F1FF3F0DD1D8F810300BB9D9
:1055E0000124DAE708F11000FFF794FAB0B1BFB177
:1055F00001243C60D1E700F08FF9814512D2B9F166
:105600007F0F07D009F101094FFA89F988F8449012
:105610000124C2E7FFF76EFE01BEF3E70124BCE7F9
:105620000124BAE70124B8E738B50D46044618B19D
:105630000DB30020034608E0FFF75CFE01BEF7E76C
:105640000D4800EBC30014E00133092B10D80A4ABF
:1056500002EBC3025268A242F2D00028F4D1064AFB
:1056600052F83320002AEFD1034800EBC300EBE7E8
:1056700008B10560446038BD1C09002010B504461F
:1056800050B10023092B12D8094A02EBC302526819
:10569000A24205D00133F5E7FFF72CFE01BEF0E78B
:1056A000034A002142F8331002EBC302516010BDDF
:1056B0001C09002010B5044630B12046FFF7DEFF7C
:1056C00094F8463023B110BDFFF714FE01BEF4E795
:1056D0002046FFF77FFEF6E72DE9F04780460D46AE
:1056E00017469946089EDDF824A00A9C9200A52141
:1056F000206B00F099FD236B07F18042013A03EB28
:10570000820727F007078DB14FF0000CBCF10F0F97
:1057100009D815F80C3004EB0C0282F8343013B1C0
:105720000CF1010CF2E7002384F84330062E28D850
:10573000E662E664201DFEF7FEF904F11800FEF7AC
:10574000FAF92461C6F10706A66164624C220021C1
:1057500004F1680000F068FD0C4BE36603F1680299
:105760002267D03363674B464246216B3846FFF7CA
:10577000ABFC2060BAF1000F01D0CAF80040BDE8D0
:10578000F087FFF7B7FD01BE0626D1E7700D0020B8
:1057900038B5002407E004EB840293000E48184457
:1057A000FEF7BEF90134062CF5D90C4D2846FEF75C
:1057B000B7F90B4C2046FEF7B3F90A48FEF7B0F9EB
:1057C0000948FEF7ADF90948FEF7AAF9084B1D6034
:1057D000084B1C6038BD00BF080A0020F4090020F7
:1057E000E0090020C4090020B00900209809002029
:1057F000DC090020D809002010B50446683000F00C
:10580000F3FC94F8B9303BB1012B0CD0022B09D03A
:10581000FFF770FD01BE05E0206BFFF7DBFD2046C2
:10582000FFF7D8FD10BD2046FFF7D4FDFAE70000D2
:105830000F4B1B68D3B110B5FFF712FC0D4BDB68A3
:10584000DC68201DFEF785F90B4A1368013B1360E5
:10585000074A1368013B1360FFF710FC2046FFF76F
:10586000CBFF034B1B68002BE6D110BD704700BF78
:10587000AC090020B0090020940900202DE9F04374
:1058800087B081460E46174698460F9D109C15B36B
:105890002CB3BC220492049ABC2A24D1049B34B3B6
:1058A0002DB3BC220021204600F0BEFC256302235C
:1058B00084F8B93000230393029405AB01930E9B47
:1058C000009343463A4631464846FFF705FF2046D7
:1058D000FEF714FD0DE0FFF70DFD01BED8E7FFF761
:1058E00009FD01BED5E7FFF705FD01BED6E70023A0
:1058F0000593059807B0BDE8F0830000024A1368DD
:1059000001331360704700BF6C090020014B186819
:10591000704700BF90090020014B1868704700BF16
:105920009409002038B50C46054650B1074B19685C
:1059300018312846FFF718FB01212046FEF73AFDF3
:1059400038BDFFF7D7FC01BEF0E700BF940A002086
:10595000034B1B680360034B1B684360704700BF29
:105960007C0900209009002000284BD038B504465F
:10597000C36A264A1268D26A93423BD28269002ADD
:1059800005DB224A1268D26AC2F1070282616169AC
:1059900003EB83031E4A02EB8303994205D01B4BA2
:1059A0001B68DB6AE362012038BD251D2846FEF72F
:1059B000D0F8164B1B68DB6AE362164A1268934202
:1059C00001D9144A1360124A03EB830302EB8303E9
:1059D0005B68A3609968E1604D609D60E36A03EBDA
:1059E0008301880002EB810161611158013111507E
:1059F0000120D9E7C26C054B1B68DB6A9A4203D3CE
:105A00000020D1E7002070470120CDE7940A002054
:105A1000080A00208C09002000283ED038B5044632
:105A2000204B1B68834202D0FFF764FC01BE236D4C
:105A30004BB1236D013B2365E16AE26C91422ED0AC
:105A40002BB1002038BDFFF755FC01BEF1E7251D45
:105A50002846FEF77EF8E36CE362C3F10702A26119
:105A6000114A1268934201D90F4A13600F4A03EB9F
:105A7000830302EB83035B68A3609968E1604D6078
:105A80009D60E36A03EB8301880002EB81016161A1
:105A90001158013111500120D4E700207047002037
:105AA000D0E700BF940A00208C090020080A0020DB
:105AB00000284CD070B50D460446036D53B1E66C1A
:105AC000AE4200D22E46E36AB34202D0236D012BD0
:105AD00004D070BDFFF70EFC01BEF0E71C4B1B6845
:105AE000A34230D0E36AE662A269002A02DBC6F173
:105AF0000706A661616903EB8303164A02EB830381
:105B00009942E6D1251D2846FEF723F8E36A124A9A
:105B10001268934201D9104A13600E4A03EB8303C3
:105B200002EB83035B68A3609968E1604D609D6050
:105B3000E36A03EB8301880002EB81016161115884
:105B400001311150C5E7FFF7D5FB01BECAE7704729
:105B5000940A0020080A00208C090020054B1B68CD
:105B600023B1044B1A68136D01331365014B186898
:105B7000704700BF940A0020064B1A6813682BB9BF
:105B80000123036023B9D368186870470023F8E73E
:105B900000207047980B002008B5416000619142D9
:105BA0000CD8D21A83699A4201D3012008BD011D85
:105BB000094B1868FFF7D8F90020F7E79A4201D29D
:105BC000994206D2011D054B1868FFF7CDF9002058
:105BD000ECE70120EAE700BF940B0020980B0020BF
:105BE00070B504460D46164604E0A3691D44236AB9
:105BF00020469847A1692B46324629442046FFF7A4
:105C0000CBFF0028F1D170BD70B505460E460D4B97
:105C10001B68DB68DC68201DFDF79BFF94F82830CB
:105C200013F0040F07D123F0010384F82830236A0E
:105C30002046984770BD324629462046FFF7D0FFE0
:105C4000F5E700BF980B002008B505E0DB684FF0D2
:105C5000FF311868FFF7D8FF054B1B681A68002A48
:105C6000F4D1044A106802490860136008BD00BFFF
:105C7000980B0020940B002038B50546FFF746FE30
:105C80000446074B1B68834205D800232B60044B56
:105C90001C60204638BDFFF7D7FF01232B60F6E7D5
:105CA000880B002070B582B006460C46FFF726FE32
:105CB00001A8FFF7E1FF019B03BB05469CB9B04279
:105CC0000AD22246711B0F4B1868FEF7BAFAFEF78C
:105CD0002FFD80B102B070BDFEF72AFD2946304687
:105CE000FFF792FFF6E7084A126812680AB9012422
:105CF000E7E71C46E5E7FFF7A7F9EBE7FEF718FD36
:105D0000E8E700BF900B0020940B002030B587B06F
:105D100002E0029B002B0FDA002202A9394B18681F
:105D2000FEF731F900286AD0029B002BF1DA0599C1
:105D30000498039B9847ECE7049C636913B1201D0A
:105D4000FDF707FF01A8FFF797FF0546029B013B00
:105D5000082BE1D8DFE803F00505293045050529C2
:105D6000300094F8283043F0010384F82830039B76
:105D7000A169024619442046FFF70EFF0028CBD048
:105D800094F8283013F0040F07D123F0010384F8AE
:105D90002830236A20469847BEE7A3692A4603991C
:105DA00019442046FFF71CFFF3E794F8283023F04E
:105DB000010384F82830AFE794F8283043F001035A
:105DC00084F82830039BA3613BB1A1692B462A4686
:105DD00029442046FFF7E0FE9EE7FFF78BFA01BE5D
:105DE000F3E794F8283013F0020F04D023F00103F6
:105DF00084F8283090E72046FFF7ECFA8CE707B0EC
:105E000030BD00BF900B002000B583B001A8FFF7A4
:105E1000B3FE0199FFF746FFFFF778FFF6E70000B2
:105E200030B583B0FFF71CF9114B1B681BB1FFF7AE
:105E300025F903B030BD0F4D2846FDF771FE0E4C1D
:105E40002046FDF76DFE0D4B1D600D4B1C600023C1
:105E500000930C4B0C4A10210A20FFF725FB044B42
:105E600018600028E3D00949FFF7DEFBDFE700BF39
:105E7000900B0020B00B00209C0B0020980B002002
:105E8000940B0020980A0020E80A0020300858608F
:105E900010B588B0FFF7C4FF104B1B68C3B10024D6
:105EA0000594069407AA06A905A800F08BF8059B9F
:105EB0000293069B0193032300932346079A084904
:105EC0000848FFF7DBFC084B186008B1012003E02D
:105ED000FFF710FA01BE002008B010BD900B0020A3
:105EE00038085860992600008C0B002010B584B04B
:105EF00014461A466FF00103009301900291039437
:105F00000023694602480068FDF788FF04B010BD11
:105F1000900B00207047000008B503460A4A10683D
:105F20000A4A121A9A4207DBC118094A914203DB56
:105F30000344054A136008BD00F06EF90C230360AA
:105F40004FF0FF30F7E700BF0000002000C02F2611
:105F50001800042608B5FFF7D1FC08BD08B5FEF708
:105F6000E7FB08BD08B5FFF7C9FC08BD08B5FEF79B
:105F7000DFFB08BD10B50446FFF7F4FF024B1C60C1
:105F8000FFF7F4FF10BD00BF10090020014B18609F
:105F9000704700BF0C090020014B1868704700BF14
:105FA0000C0900201420704700207047034B036049
:105FB000034B0B6080231360704700BF5008002024
:105FC00050060020034B0360034B0B604FF48073BB
:105FD000136070479405002094010020F0B583B051
:105FE000044600230193FFF7D7FF00283FD0FEF7B8
:105FF000F4FE0546FEF7ACFEA0B34FF47A7303FB44
:1060000004F41C4BA3FB0434A409FFF7CDFF07469F
:10601000FFF7C8FF064684420BD80126019B13B345
:10602000A34200D901BE0198FDF7BAFCFEF790FA31
:1060300019E0FFF7B1FF012301AAA11B00F0DCF872
:106040000D4B984201D00026E8E7BC4201D800265B
:10605000E4E7FFF7A1FF002301AAE11B00F0CCF861
:106060000026DBE700262846FEF7BBFE06B130BF60
:1060700003B0F0BDD34D62100212020460B110B53E
:106080000B46114604461846FFF766FA206008B131
:10609000002010BD0148FCE70148704701000E06D2
:1060A00005000E0630B583B00023019310B30546FA
:1060B000EFF3058303B1F9B90846FDF771FC01461A
:1060C000EFF305847CB101AA00212868FFF755FA97
:1060D000A0B1019BA3B14FF0E0234FF08052C3F871
:1060E000042D002403E02868FDF7DBFF50B12046B3
:1060F00003B030BD044CFAE7034CF8E7034CF6E775
:106100000024F4E7014CF2E705000E0600000E063D
:1061100000B583B000230193F0B1EFF3058373B1B1
:1061200001A90068FDF7DEFE01280ED1019B63B1D5
:106130004FF0E0234FF08052C3F8042D05E0002318
:106140001A4619460068FDF7B7FD18B1002003B0E4
:106150005DF804FB0148FAE70148F8E702000E0683
:1061600005000E0628B108B50068FFF7A3FA002065
:1061700008BD0148704700BF05000E0610B582B08B
:10618000F8B1EFF30584B4B10022019201AA0068CE
:10619000FEF7E0FE012802D058B100240EE0019B7A
:1061A000002BF9D04FF0E0234FF08052C3F8042DBC
:1061B000F2E7054C02E00068FEF78AFE204602B0D6
:1061C00010BD024CFAE700BF02000E0605000E06E5
:1061D00030B110B50446FFF799FB2060002010BDD8
:1061E0000048704705000E065FF800F0A9345860BB
:1061F0005FF800F0D93558605FF800F0490E58603C
:106200005FF800F0353358605FF800F045335860B0
:106210005FF800F0912F58605FF800F08535586006
:106220005FF800F0B10E58605FF800F099345860E4
:1062300018000426AAAAAAAAF10C586005000000BA
:1062400003000000D40B002000000000000000004C
:10625000FF000000F10C5860000000000300000087
